{
  "_format": "hh-sol-artifact-1",
  "contractName": "NFT",
  "sourceName": "src/backend/contracts/NFT.sol",
  "abi": [
    {
      "inputs": [
        {
          "internalType": "address",
          "name": "marketPlaceAddress_",
          "type": "address"
        }
      ],
      "stateMutability": "nonpayable",
      "type": "constructor"
    },
    {
      "anonymous": false,
      "inputs": [
        {
          "indexed": true,
          "internalType": "address",
          "name": "owner",
          "type": "address"
        },
        {
          "indexed": true,
          "internalType": "address",
          "name": "approved",
          "type": "address"
        },
        {
          "indexed": true,
          "internalType": "uint256",
          "name": "tokenId",
          "type": "uint256"
        }
      ],
      "name": "Approval",
      "type": "event"
    },
    {
      "anonymous": false,
      "inputs": [
        {
          "indexed": true,
          "internalType": "address",
          "name": "owner",
          "type": "address"
        },
        {
          "indexed": true,
          "internalType": "address",
          "name": "operator",
          "type": "address"
        },
        {
          "indexed": false,
          "internalType": "bool",
          "name": "approved",
          "type": "bool"
        }
      ],
      "name": "ApprovalForAll",
      "type": "event"
    },
    {
      "anonymous": false,
      "inputs": [
        {
          "indexed": true,
          "internalType": "address",
          "name": "from",
          "type": "address"
        },
        {
          "indexed": true,
          "internalType": "address",
          "name": "to",
          "type": "address"
        },
        {
          "indexed": true,
          "internalType": "uint256",
          "name": "tokenId",
          "type": "uint256"
        }
      ],
      "name": "Transfer",
      "type": "event"
    },
    {
      "inputs": [],
      "name": "_tokenIds",
      "outputs": [
        {
          "internalType": "uint256",
          "name": "_value",
          "type": "uint256"
        }
      ],
      "stateMutability": "view",
      "type": "function"
    },
    {
      "inputs": [
        {
          "internalType": "address",
          "name": "to",
          "type": "address"
        },
        {
          "internalType": "uint256",
          "name": "tokenId",
          "type": "uint256"
        }
      ],
      "name": "approve",
      "outputs": [],
      "stateMutability": "nonpayable",
      "type": "function"
    },
    {
      "inputs": [
        {
          "internalType": "address",
          "name": "owner",
          "type": "address"
        }
      ],
      "name": "balanceOf",
      "outputs": [
        {
          "internalType": "uint256",
          "name": "",
          "type": "uint256"
        }
      ],
      "stateMutability": "view",
      "type": "function"
    },
    {
      "inputs": [
        {
          "internalType": "uint256",
          "name": "tokenId",
          "type": "uint256"
        }
      ],
      "name": "getApproved",
      "outputs": [
        {
          "internalType": "address",
          "name": "",
          "type": "address"
        }
      ],
      "stateMutability": "view",
      "type": "function"
    },
    {
      "inputs": [
        {
          "internalType": "address",
          "name": "owner",
          "type": "address"
        },
        {
          "internalType": "address",
          "name": "operator",
          "type": "address"
        }
      ],
      "name": "isApprovedForAll",
      "outputs": [
        {
          "internalType": "bool",
          "name": "",
          "type": "bool"
        }
      ],
      "stateMutability": "view",
      "type": "function"
    },
    {
      "inputs": [],
      "name": "marketPlaceAddress",
      "outputs": [
        {
          "internalType": "address",
          "name": "",
          "type": "address"
        }
      ],
      "stateMutability": "view",
      "type": "function"
    },
    {
      "inputs": [
        {
          "internalType": "string",
          "name": "tokenURI",
          "type": "string"
        }
      ],
      "name": "mintNFT",
      "outputs": [
        {
          "internalType": "uint256",
          "name": "",
          "type": "uint256"
        }
      ],
      "stateMutability": "nonpayable",
      "type": "function"
    },
    {
      "inputs": [],
      "name": "name",
      "outputs": [
        {
          "internalType": "string",
          "name": "",
          "type": "string"
        }
      ],
      "stateMutability": "view",
      "type": "function"
    },
    {
      "inputs": [
        {
          "internalType": "uint256",
          "name": "tokenId",
          "type": "uint256"
        }
      ],
      "name": "ownerOf",
      "outputs": [
        {
          "internalType": "address",
          "name": "",
          "type": "address"
        }
      ],
      "stateMutability": "view",
      "type": "function"
    },
    {
      "inputs": [
        {
          "internalType": "address",
          "name": "from",
          "type": "address"
        },
        {
          "internalType": "address",
          "name": "to",
          "type": "address"
        },
        {
          "internalType": "uint256",
          "name": "tokenId",
          "type": "uint256"
        }
      ],
      "name": "safeTransferFrom",
      "outputs": [],
      "stateMutability": "nonpayable",
      "type": "function"
    },
    {
      "inputs": [
        {
          "internalType": "address",
          "name": "from",
          "type": "address"
        },
        {
          "internalType": "address",
          "name": "to",
          "type": "address"
        },
        {
          "internalType": "uint256",
          "name": "tokenId",
          "type": "uint256"
        },
        {
          "internalType": "bytes",
          "name": "_data",
          "type": "bytes"
        }
      ],
      "name": "safeTransferFrom",
      "outputs": [],
      "stateMutability": "nonpayable",
      "type": "function"
    },
    {
      "inputs": [
        {
          "internalType": "address",
          "name": "operator",
          "type": "address"
        },
        {
          "internalType": "bool",
          "name": "approved",
          "type": "bool"
        }
      ],
      "name": "setApprovalForAll",
      "outputs": [],
      "stateMutability": "nonpayable",
      "type": "function"
    },
    {
      "inputs": [
        {
          "internalType": "bytes4",
          "name": "interfaceId",
          "type": "bytes4"
        }
      ],
      "name": "supportsInterface",
      "outputs": [
        {
          "internalType": "bool",
          "name": "",
          "type": "bool"
        }
      ],
      "stateMutability": "view",
      "type": "function"
    },
    {
      "inputs": [],
      "name": "symbol",
      "outputs": [
        {
          "internalType": "string",
          "name": "",
          "type": "string"
        }
      ],
      "stateMutability": "view",
      "type": "function"
    },
    {
      "inputs": [
        {
          "internalType": "uint256",
          "name": "tokenId",
          "type": "uint256"
        }
      ],
      "name": "tokenURI",
      "outputs": [
        {
          "internalType": "string",
          "name": "",
          "type": "string"
        }
      ],
      "stateMutability": "view",
      "type": "function"
    },
    {
      "inputs": [
        {
          "internalType": "address",
          "name": "from",
          "type": "address"
        },
        {
          "internalType": "address",
          "name": "to",
          "type": "address"
        },
        {
          "internalType": "uint256",
          "name": "tokenId",
          "type": "uint256"
        }
      ],
      "name": "transferFrom",
      "outputs": [],
      "stateMutability": "nonpayable",
      "type": "function"
    }
  ],
  "bytecode": "0x60806040523480156200001157600080fd5b5060405162002f8538038062002f858339818101604052810190620000379190620001e6565b6040518060400160405280600c81526020017f4352415a59204d4f4e4b455900000000000000000000000000000000000000008152506040518060400160405280600281526020017f434d0000000000000000000000000000000000000000000000000000000000008152508160009080519060200190620000bb9291906200011f565b508060019080519060200190620000d49291906200011f565b50505080600860006101000a81548173ffffffffffffffffffffffffffffffffffffffff021916908373ffffffffffffffffffffffffffffffffffffffff16021790555050620002c5565b8280546200012d9062000246565b90600052602060002090601f0160209004810192826200015157600085556200019d565b82601f106200016c57805160ff19168380011785556200019d565b828001600101855582156200019d579182015b828111156200019c5782518255916020019190600101906200017f565b5b509050620001ac9190620001b0565b5090565b5b80821115620001cb576000816000905550600101620001b1565b5090565b600081519050620001e081620002ab565b92915050565b600060208284031215620001f957600080fd5b60006200020984828501620001cf565b91505092915050565b60006200021f8262000226565b9050919050565b600073ffffffffffffffffffffffffffffffffffffffff82169050919050565b600060028204905060018216806200025f57607f821691505b602082108114156200027657620002756200027c565b5b50919050565b7f4e487b7100000000000000000000000000000000000000000000000000000000600052602260045260246000fd5b620002b68162000212565b8114620002c257600080fd5b50565b612cb080620002d56000396000f3fe608060405234801561001057600080fd5b50600436106101005760003560e01c806395d89b4111610097578063c87b56dd11610066578063c87b56dd146102ab578063e985e9c5146102db578063ed27107b1461030b578063fb37e8831461032957610100565b806395d89b4114610237578063a22cb46514610255578063aa46a40014610271578063b88d4fde1461028f57610100565b806323b872dd116100d357806323b872dd1461019f57806342842e0e146101bb5780636352211e146101d757806370a082311461020757610100565b806301ffc9a71461010557806306fdde0314610135578063081812fc14610153578063095ea7b314610183575b600080fd5b61011f600480360381019061011a9190611d1c565b610359565b60405161012c9190612163565b60405180910390f35b61013d61043b565b60405161014a919061217e565b60405180910390f35b61016d60048036038101906101689190611daf565b6104cd565b60405161017a91906120fc565b60405180910390f35b61019d60048036038101906101989190611ce0565b610552565b005b6101b960048036038101906101b49190611bda565b61066a565b005b6101d560048036038101906101d09190611bda565b6106ca565b005b6101f160048036038101906101ec9190611daf565b6106ea565b6040516101fe91906120fc565b60405180910390f35b610221600480360381019061021c9190611b75565b61079c565b60405161022e91906123a0565b60405180910390f35b61023f610854565b60405161024c919061217e565b60405180910390f35b61026f600480360381019061026a9190611ca4565b6108e6565b005b6102796108fc565b60405161028691906123a0565b60405180910390f35b6102a960048036038101906102a49190611c29565b610908565b005b6102c560048036038101906102c09190611daf565b61096a565b6040516102d2919061217e565b60405180910390f35b6102f560048036038101906102f09190611b9e565b610abc565b6040516103029190612163565b60405180910390f35b610313610b50565b60405161032091906120fc565b60405180910390f35b610343600480360381019061033e9190611d6e565b610b76565b60405161035091906123a0565b60405180910390f35b60007f80ac58cd000000000000000000000000000000000000000000000000000000007bffffffffffffffffffffffffffffffffffffffffffffffffffffffff1916827bffffffffffffffffffffffffffffffffffffffffffffffffffffffff1916148061042457507f5b5e139f000000000000000000000000000000000000000000000000000000007bffffffffffffffffffffffffffffffffffffffffffffffffffffffff1916827bffffffffffffffffffffffffffffffffffffffffffffffffffffffff1916145b80610434575061043382610bda565b5b9050919050565b60606000805461044a906125f6565b80601f0160208091040260200160405190810160405280929190818152602001828054610476906125f6565b80156104c35780601f10610498576101008083540402835291602001916104c3565b820191906000526020600020905b8154815290600101906020018083116104a657829003601f168201915b5050505050905090565b60006104d882610c44565b610517576040517f08c379a000000000000000000000000000000000000000000000000000000000815260040161050e90612320565b60405180910390fd5b6004600083815260200190815260200160002060009054906101000a900473ffffffffffffffffffffffffffffffffffffffff169050919050565b600061055d826106ea565b90508073ffffffffffffffffffffffffffffffffffffffff168373ffffffffffffffffffffffffffffffffffffffff1614156105ce576040517f08c379a00000000000000000000000000000000000000000000000000000000081526004016105c590612360565b60405180910390fd5b8073ffffffffffffffffffffffffffffffffffffffff166105ed610cb0565b73ffffffffffffffffffffffffffffffffffffffff16148061061c575061061b81610616610cb0565b610abc565b5b61065b576040517f08c379a000000000000000000000000000000000000000000000000000000000815260040161065290612260565b60405180910390fd5b6106658383610cb8565b505050565b61067b610675610cb0565b82610d71565b6106ba576040517f08c379a00000000000000000000000000000000000000000000000000000000081526004016106b190612380565b60405180910390fd5b6106c5838383610e4f565b505050565b6106e583838360405180602001604052806000815250610908565b505050565b6000806002600084815260200190815260200160002060009054906101000a900473ffffffffffffffffffffffffffffffffffffffff169050600073ffffffffffffffffffffffffffffffffffffffff168173ffffffffffffffffffffffffffffffffffffffff161415610793576040517f08c379a000000000000000000000000000000000000000000000000000000000815260040161078a906122a0565b60405180910390fd5b80915050919050565b60008073ffffffffffffffffffffffffffffffffffffffff168273ffffffffffffffffffffffffffffffffffffffff16141561080d576040517f08c379a000000000000000000000000000000000000000000000000000000000815260040161080490612280565b60405180910390fd5b600360008373ffffffffffffffffffffffffffffffffffffffff1673ffffffffffffffffffffffffffffffffffffffff168152602001908152602001600020549050919050565b606060018054610863906125f6565b80601f016020809104026020016040519081016040528092919081815260200182805461088f906125f6565b80156108dc5780601f106108b1576101008083540402835291602001916108dc565b820191906000526020600020905b8154815290600101906020018083116108bf57829003601f168201915b5050505050905090565b6108f86108f1610cb0565b83836110b6565b5050565b60078060000154905081565b610919610913610cb0565b83610d71565b610958576040517f08c379a000000000000000000000000000000000000000000000000000000000815260040161094f90612380565b60405180910390fd5b61096484848484611223565b50505050565b606061097582610c44565b6109b4576040517f08c379a00000000000000000000000000000000000000000000000000000000081526004016109ab90612300565b60405180910390fd5b60006006600084815260200190815260200160002080546109d4906125f6565b80601f0160208091040260200160405190810160405280929190818152602001828054610a00906125f6565b8015610a4d5780601f10610a2257610100808354040283529160200191610a4d565b820191906000526020600020905b815481529060010190602001808311610a3057829003601f168201915b505050505090506000610a5e61127f565b9050600081511415610a74578192505050610ab7565b600082511115610aa9578082604051602001610a919291906120d8565b60405160208183030381529060405292505050610ab7565b610ab284611296565b925050505b919050565b6000600560008473ffffffffffffffffffffffffffffffffffffffff1673ffffffffffffffffffffffffffffffffffffffff16815260200190815260200160002060008373ffffffffffffffffffffffffffffffffffffffff1673ffffffffffffffffffffffffffffffffffffffff16815260200190815260200160002060009054906101000a900460ff16905092915050565b600860009054906101000a900473ffffffffffffffffffffffffffffffffffffffff1681565b6000610b82600761133d565b6000610b8e6007611353565b9050610b9a3382611361565b610ba4818461137f565b610bd1600860009054906101000a900473ffffffffffffffffffffffffffffffffffffffff1660016108e6565b80915050919050565b60007f01ffc9a7000000000000000000000000000000000000000000000000000000007bffffffffffffffffffffffffffffffffffffffffffffffffffffffff1916827bffffffffffffffffffffffffffffffffffffffffffffffffffffffff1916149050919050565b60008073ffffffffffffffffffffffffffffffffffffffff166002600084815260200190815260200160002060009054906101000a900473ffffffffffffffffffffffffffffffffffffffff1673ffffffffffffffffffffffffffffffffffffffff1614159050919050565b600033905090565b816004600083815260200190815260200160002060006101000a81548173ffffffffffffffffffffffffffffffffffffffff021916908373ffffffffffffffffffffffffffffffffffffffff160217905550808273ffffffffffffffffffffffffffffffffffffffff16610d2b836106ea565b73ffffffffffffffffffffffffffffffffffffffff167f8c5be1e5ebec7d5bd14f71427d1e84f3dd0314c0f7b2291e5b200ac8c7c3b92560405160405180910390a45050565b6000610d7c82610c44565b610dbb576040517f08c379a0000000000000000000000000000000000000000000000000000000008152600401610db290612240565b60405180910390fd5b6000610dc6836106ea565b90508073ffffffffffffffffffffffffffffffffffffffff168473ffffffffffffffffffffffffffffffffffffffff161480610e3557508373ffffffffffffffffffffffffffffffffffffffff16610e1d846104cd565b73ffffffffffffffffffffffffffffffffffffffff16145b80610e465750610e458185610abc565b5b91505092915050565b8273ffffffffffffffffffffffffffffffffffffffff16610e6f826106ea565b73ffffffffffffffffffffffffffffffffffffffff1614610ec5576040517f08c379a0000000000000000000000000000000000000000000000000000000008152600401610ebc906121c0565b60405180910390fd5b600073ffffffffffffffffffffffffffffffffffffffff168273ffffffffffffffffffffffffffffffffffffffff161415610f35576040517f08c379a0000000000000000000000000000000000000000000000000000000008152600401610f2c90612200565b60405180910390fd5b610f408383836113f3565b610f4b600082610cb8565b6001600360008573ffffffffffffffffffffffffffffffffffffffff1673ffffffffffffffffffffffffffffffffffffffff1681526020019081526020016000206000828254610f9b919061250c565b925050819055506001600360008473ffffffffffffffffffffffffffffffffffffffff1673ffffffffffffffffffffffffffffffffffffffff1681526020019081526020016000206000828254610ff29190612485565b92505081905550816002600083815260200190815260200160002060006101000a81548173ffffffffffffffffffffffffffffffffffffffff021916908373ffffffffffffffffffffffffffffffffffffffff160217905550808273ffffffffffffffffffffffffffffffffffffffff168473ffffffffffffffffffffffffffffffffffffffff167fddf252ad1be2c89b69c2b068fc378daa952ba7f163c4a11628f55a4df523b3ef60405160405180910390a46110b18383836113f8565b505050565b8173ffffffffffffffffffffffffffffffffffffffff168373ffffffffffffffffffffffffffffffffffffffff161415611125576040517f08c379a000000000000000000000000000000000000000000000000000000000815260040161111c90612220565b60405180910390fd5b80600560008573ffffffffffffffffffffffffffffffffffffffff1673ffffffffffffffffffffffffffffffffffffffff16815260200190815260200160002060008473ffffffffffffffffffffffffffffffffffffffff1673ffffffffffffffffffffffffffffffffffffffff16815260200190815260200160002060006101000a81548160ff0219169083151502179055508173ffffffffffffffffffffffffffffffffffffffff168373ffffffffffffffffffffffffffffffffffffffff167f17307eab39ab6107e8899845ad3d59bd9653f200f220920489ca2b5937696c31836040516112169190612163565b60405180910390a3505050565b61122e848484610e4f565b61123a848484846113fd565b611279576040517f08c379a0000000000000000000000000000000000000000000000000000000008152600401611270906121a0565b60405180910390fd5b50505050565b606060405180602001604052806000815250905090565b60606112a182610c44565b6112e0576040517f08c379a00000000000000000000000000000000000000000000000000000000081526004016112d790612340565b60405180910390fd5b60006112ea61127f565b9050600081511161130a5760405180602001604052806000815250611335565b8061131484611594565b6040516020016113259291906120d8565b6040516020818303038152906040525b915050919050565b6001816000016000828254019250508190555050565b600081600001549050919050565b61137b828260405180602001604052806000815250611741565b5050565b61138882610c44565b6113c7576040517f08c379a00000000000000000000000000000000000000000000000000000000081526004016113be906122c0565b60405180910390fd5b806006600084815260200190815260200160002090805190602001906113ee929190611999565b505050565b505050565b505050565b600061141e8473ffffffffffffffffffffffffffffffffffffffff1661179c565b15611587578373ffffffffffffffffffffffffffffffffffffffff1663150b7a02611447610cb0565b8786866040518563ffffffff1660e01b81526004016114699493929190612117565b602060405180830381600087803b15801561148357600080fd5b505af19250505080156114b457506040513d601f19601f820116820180604052508101906114b19190611d45565b60015b611537573d80600081146114e4576040519150601f19603f3d011682016040523d82523d6000602084013e6114e9565b606091505b5060008151141561152f576040517f08c379a0000000000000000000000000000000000000000000000000000000008152600401611526906121a0565b60405180910390fd5b805181602001fd5b63150b7a0260e01b7bffffffffffffffffffffffffffffffffffffffffffffffffffffffff1916817bffffffffffffffffffffffffffffffffffffffffffffffffffffffff19161491505061158c565b600190505b949350505050565b606060008214156115dc576040518060400160405280600181526020017f3000000000000000000000000000000000000000000000000000000000000000815250905061173c565b600082905060005b6000821461160e5780806115f790612659565b915050600a8261160791906124db565b91506115e4565b60008167ffffffffffffffff811115611650577f4e487b7100000000000000000000000000000000000000000000000000000000600052604160045260246000fd5b6040519080825280601f01601f1916602001820160405280156116825781602001600182028036833780820191505090505b5090505b600085146117355760018261169b919061250c565b9150600a856116aa91906126a2565b60306116b69190612485565b60f81b8183815181106116f2577f4e487b7100000000000000000000000000000000000000000000000000000000600052603260045260246000fd5b60200101907effffffffffffffffffffffffffffffffffffffffffffffffffffffffffffff1916908160001a905350600a8561172e91906124db565b9450611686565b8093505050505b919050565b61174b83836117bf565b61175860008484846113fd565b611797576040517f08c379a000000000000000000000000000000000000000000000000000000000815260040161178e906121a0565b60405180910390fd5b505050565b6000808273ffffffffffffffffffffffffffffffffffffffff163b119050919050565b600073ffffffffffffffffffffffffffffffffffffffff168273ffffffffffffffffffffffffffffffffffffffff16141561182f576040517f08c379a0000000000000000000000000000000000000000000000000000000008152600401611826906122e0565b60405180910390fd5b61183881610c44565b15611878576040517f08c379a000000000000000000000000000000000000000000000000000000000815260040161186f906121e0565b60405180910390fd5b611884600083836113f3565b6001600360008473ffffffffffffffffffffffffffffffffffffffff1673ffffffffffffffffffffffffffffffffffffffff16815260200190815260200160002060008282546118d49190612485565b92505081905550816002600083815260200190815260200160002060006101000a81548173ffffffffffffffffffffffffffffffffffffffff021916908373ffffffffffffffffffffffffffffffffffffffff160217905550808273ffffffffffffffffffffffffffffffffffffffff16600073ffffffffffffffffffffffffffffffffffffffff167fddf252ad1be2c89b69c2b068fc378daa952ba7f163c4a11628f55a4df523b3ef60405160405180910390a4611995600083836113f8565b5050565b8280546119a5906125f6565b90600052602060002090601f0160209004810192826119c75760008555611a0e565b82601f106119e057805160ff1916838001178555611a0e565b82800160010185558215611a0e579182015b82811115611a0d5782518255916020019190600101906119f2565b5b509050611a1b9190611a1f565b5090565b5b80821115611a38576000816000905550600101611a20565b5090565b6000611a4f611a4a846123e0565b6123bb565b905082815260208101848484011115611a6757600080fd5b611a728482856125b4565b509392505050565b6000611a8d611a8884612411565b6123bb565b905082815260208101848484011115611aa557600080fd5b611ab08482856125b4565b509392505050565b600081359050611ac781612c1e565b92915050565b600081359050611adc81612c35565b92915050565b600081359050611af181612c4c565b92915050565b600081519050611b0681612c4c565b92915050565b600082601f830112611b1d57600080fd5b8135611b2d848260208601611a3c565b91505092915050565b600082601f830112611b4757600080fd5b8135611b57848260208601611a7a565b91505092915050565b600081359050611b6f81612c63565b92915050565b600060208284031215611b8757600080fd5b6000611b9584828501611ab8565b91505092915050565b60008060408385031215611bb157600080fd5b6000611bbf85828601611ab8565b9250506020611bd085828601611ab8565b9150509250929050565b600080600060608486031215611bef57600080fd5b6000611bfd86828701611ab8565b9350506020611c0e86828701611ab8565b9250506040611c1f86828701611b60565b9150509250925092565b60008060008060808587031215611c3f57600080fd5b6000611c4d87828801611ab8565b9450506020611c5e87828801611ab8565b9350506040611c6f87828801611b60565b925050606085013567ffffffffffffffff811115611c8c57600080fd5b611c9887828801611b0c565b91505092959194509250565b60008060408385031215611cb757600080fd5b6000611cc585828601611ab8565b9250506020611cd685828601611acd565b9150509250929050565b60008060408385031215611cf357600080fd5b6000611d0185828601611ab8565b9250506020611d1285828601611b60565b9150509250929050565b600060208284031215611d2e57600080fd5b6000611d3c84828501611ae2565b91505092915050565b600060208284031215611d5757600080fd5b6000611d6584828501611af7565b91505092915050565b600060208284031215611d8057600080fd5b600082013567ffffffffffffffff811115611d9a57600080fd5b611da684828501611b36565b91505092915050565b600060208284031215611dc157600080fd5b6000611dcf84828501611b60565b91505092915050565b611de181612540565b82525050565b611df081612552565b82525050565b6000611e0182612442565b611e0b8185612458565b9350611e1b8185602086016125c3565b611e248161278f565b840191505092915050565b6000611e3a8261244d565b611e448185612469565b9350611e548185602086016125c3565b611e5d8161278f565b840191505092915050565b6000611e738261244d565b611e7d818561247a565b9350611e8d8185602086016125c3565b80840191505092915050565b6000611ea6603283612469565b9150611eb1826127a0565b604082019050919050565b6000611ec9602583612469565b9150611ed4826127ef565b604082019050919050565b6000611eec601c83612469565b9150611ef78261283e565b602082019050919050565b6000611f0f602483612469565b9150611f1a82612867565b604082019050919050565b6000611f32601983612469565b9150611f3d826128b6565b602082019050919050565b6000611f55602c83612469565b9150611f60826128df565b604082019050919050565b6000611f78603883612469565b9150611f838261292e565b604082019050919050565b6000611f9b602a83612469565b9150611fa68261297d565b604082019050919050565b6000611fbe602983612469565b9150611fc9826129cc565b604082019050919050565b6000611fe1602e83612469565b9150611fec82612a1b565b604082019050919050565b6000612004602083612469565b915061200f82612a6a565b602082019050919050565b6000612027603183612469565b915061203282612a93565b604082019050919050565b600061204a602c83612469565b915061205582612ae2565b604082019050919050565b600061206d602f83612469565b915061207882612b31565b604082019050919050565b6000612090602183612469565b915061209b82612b80565b604082019050919050565b60006120b3603183612469565b91506120be82612bcf565b604082019050919050565b6120d2816125aa565b82525050565b60006120e48285611e68565b91506120f08284611e68565b91508190509392505050565b60006020820190506121116000830184611dd8565b92915050565b600060808201905061212c6000830187611dd8565b6121396020830186611dd8565b61214660408301856120c9565b81810360608301526121588184611df6565b905095945050505050565b60006020820190506121786000830184611de7565b92915050565b600060208201905081810360008301526121988184611e2f565b905092915050565b600060208201905081810360008301526121b981611e99565b9050919050565b600060208201905081810360008301526121d981611ebc565b9050919050565b600060208201905081810360008301526121f981611edf565b9050919050565b6000602082019050818103600083015261221981611f02565b9050919050565b6000602082019050818103600083015261223981611f25565b9050919050565b6000602082019050818103600083015261225981611f48565b9050919050565b6000602082019050818103600083015261227981611f6b565b9050919050565b6000602082019050818103600083015261229981611f8e565b9050919050565b600060208201905081810360008301526122b981611fb1565b9050919050565b600060208201905081810360008301526122d981611fd4565b9050919050565b600060208201905081810360008301526122f981611ff7565b9050919050565b600060208201905081810360008301526123198161201a565b9050919050565b600060208201905081810360008301526123398161203d565b9050919050565b6000602082019050818103600083015261235981612060565b9050919050565b6000602082019050818103600083015261237981612083565b9050919050565b60006020820190508181036000830152612399816120a6565b9050919050565b60006020820190506123b560008301846120c9565b92915050565b60006123c56123d6565b90506123d18282612628565b919050565b6000604051905090565b600067ffffffffffffffff8211156123fb576123fa612760565b5b6124048261278f565b9050602081019050919050565b600067ffffffffffffffff82111561242c5761242b612760565b5b6124358261278f565b9050602081019050919050565b600081519050919050565b600081519050919050565b600082825260208201905092915050565b600082825260208201905092915050565b600081905092915050565b6000612490826125aa565b915061249b836125aa565b9250827fffffffffffffffffffffffffffffffffffffffffffffffffffffffffffffffff038211156124d0576124cf6126d3565b5b828201905092915050565b60006124e6826125aa565b91506124f1836125aa565b92508261250157612500612702565b5b828204905092915050565b6000612517826125aa565b9150612522836125aa565b925082821015612535576125346126d3565b5b828203905092915050565b600061254b8261258a565b9050919050565b60008115159050919050565b60007fffffffff0000000000000000000000000000000000000000000000000000000082169050919050565b600073ffffffffffffffffffffffffffffffffffffffff82169050919050565b6000819050919050565b82818337600083830152505050565b60005b838110156125e15780820151818401526020810190506125c6565b838111156125f0576000848401525b50505050565b6000600282049050600182168061260e57607f821691505b6020821081141561262257612621612731565b5b50919050565b6126318261278f565b810181811067ffffffffffffffff821117156126505761264f612760565b5b80604052505050565b6000612664826125aa565b91507fffffffffffffffffffffffffffffffffffffffffffffffffffffffffffffffff821415612697576126966126d3565b5b600182019050919050565b60006126ad826125aa565b91506126b8836125aa565b9250826126c8576126c7612702565b5b828206905092915050565b7f4e487b7100000000000000000000000000000000000000000000000000000000600052601160045260246000fd5b7f4e487b7100000000000000000000000000000000000000000000000000000000600052601260045260246000fd5b7f4e487b7100000000000000000000000000000000000000000000000000000000600052602260045260246000fd5b7f4e487b7100000000000000000000000000000000000000000000000000000000600052604160045260246000fd5b6000601f19601f8301169050919050565b7f4552433732313a207472616e7366657220746f206e6f6e20455243373231526560008201527f63656976657220696d706c656d656e7465720000000000000000000000000000602082015250565b7f4552433732313a207472616e736665722066726f6d20696e636f72726563742060008201527f6f776e6572000000000000000000000000000000000000000000000000000000602082015250565b7f4552433732313a20746f6b656e20616c7265616479206d696e74656400000000600082015250565b7f4552433732313a207472616e7366657220746f20746865207a65726f2061646460008201527f7265737300000000000000000000000000000000000000000000000000000000602082015250565b7f4552433732313a20617070726f766520746f2063616c6c657200000000000000600082015250565b7f4552433732313a206f70657261746f7220717565727920666f72206e6f6e657860008201527f697374656e7420746f6b656e0000000000000000000000000000000000000000602082015250565b7f4552433732313a20617070726f76652063616c6c6572206973206e6f74206f7760008201527f6e6572206e6f7220617070726f76656420666f7220616c6c0000000000000000602082015250565b7f4552433732313a2062616c616e636520717565727920666f7220746865207a6560008201527f726f206164647265737300000000000000000000000000000000000000000000602082015250565b7f4552433732313a206f776e657220717565727920666f72206e6f6e657869737460008201527f656e7420746f6b656e0000000000000000000000000000000000000000000000602082015250565b7f45524337323155524953746f726167653a2055524920736574206f66206e6f6e60008201527f6578697374656e7420746f6b656e000000000000000000000000000000000000602082015250565b7f4552433732313a206d696e7420746f20746865207a65726f2061646472657373600082015250565b7f45524337323155524953746f726167653a2055524920717565727920666f722060008201527f6e6f6e6578697374656e7420746f6b656e000000000000000000000000000000602082015250565b7f4552433732313a20617070726f76656420717565727920666f72206e6f6e657860008201527f697374656e7420746f6b656e0000000000000000000000000000000000000000602082015250565b7f4552433732314d657461646174613a2055524920717565727920666f72206e6f60008201527f6e6578697374656e7420746f6b656e0000000000000000000000000000000000602082015250565b7f4552433732313a20617070726f76616c20746f2063757272656e74206f776e6560008201527f7200000000000000000000000000000000000000000000000000000000000000602082015250565b7f4552433732313a207472616e736665722063616c6c6572206973206e6f74206f60008201527f776e6572206e6f7220617070726f766564000000000000000000000000000000602082015250565b612c2781612540565b8114612c3257600080fd5b50565b612c3e81612552565b8114612c4957600080fd5b50565b612c558161255e565b8114612c6057600080fd5b50565b612c6c816125aa565b8114612c7757600080fd5b5056fea264697066735822122072362ae66b4511260281469efbf4cf872cf8eaf8c1efa3af02981592d1f711c264736f6c63430008040033",
  "linkReferences": {},
  "deployedLinkReferences": {}
}