{
  "_format": "hh-sol-artifact-1",
  "contractName": "NftMarketPlace",
  "sourceName": "src/backend/contracts/nftMarket.sol",
  "abi": [
    {
      "inputs": [],
      "stateMutability": "nonpayable",
      "type": "constructor"
    },
    {
      "anonymous": false,
      "inputs": [
        {
          "indexed": true,
          "internalType": "uint256",
          "name": "itemId",
          "type": "uint256"
        },
        {
          "indexed": true,
          "internalType": "address",
          "name": "buyer",
          "type": "address"
        },
        {
          "indexed": false,
          "internalType": "uint256",
          "name": "price",
          "type": "uint256"
        },
        {
          "indexed": false,
          "internalType": "address",
          "name": "seller",
          "type": "address"
        }
      ],
      "name": "buyItem_",
      "type": "event"
    },
    {
      "anonymous": false,
      "inputs": [
        {
          "indexed": true,
          "internalType": "uint256",
          "name": "itemId",
          "type": "uint256"
        },
        {
          "indexed": true,
          "internalType": "address",
          "name": "seller",
          "type": "address"
        }
      ],
      "name": "cancel_",
      "type": "event"
    },
    {
      "anonymous": false,
      "inputs": [
        {
          "indexed": true,
          "internalType": "uint256",
          "name": "itemId",
          "type": "uint256"
        },
        {
          "indexed": true,
          "internalType": "uint256",
          "name": "price",
          "type": "uint256"
        },
        {
          "indexed": true,
          "internalType": "address",
          "name": "seller_",
          "type": "address"
        }
      ],
      "name": "listMarketItem_",
      "type": "event"
    },
    {
      "anonymous": false,
      "inputs": [
        {
          "indexed": true,
          "internalType": "uint256",
          "name": "itemId",
          "type": "uint256"
        },
        {
          "indexed": true,
          "internalType": "address",
          "name": "seller",
          "type": "address"
        }
      ],
      "name": "relisted_",
      "type": "event"
    },
    {
      "anonymous": false,
      "inputs": [
        {
          "indexed": true,
          "internalType": "uint256",
          "name": "itemId",
          "type": "uint256"
        },
        {
          "indexed": true,
          "internalType": "address",
          "name": "seller",
          "type": "address"
        }
      ],
      "name": "removed_",
      "type": "event"
    },
    {
      "anonymous": false,
      "inputs": [
        {
          "indexed": false,
          "internalType": "address",
          "name": "newNftContract",
          "type": "address"
        }
      ],
      "name": "setNFTContractAddress_",
      "type": "event"
    },
    {
      "anonymous": false,
      "inputs": [
        {
          "indexed": false,
          "internalType": "uint256",
          "name": "oldPrpice",
          "type": "uint256"
        },
        {
          "indexed": false,
          "internalType": "uint256",
          "name": "newPrice",
          "type": "uint256"
        }
      ],
      "name": "updateListingPrice_",
      "type": "event"
    },
    {
      "inputs": [
        {
          "internalType": "uint256",
          "name": "",
          "type": "uint256"
        }
      ],
      "name": "MarketItems",
      "outputs": [
        {
          "internalType": "uint256",
          "name": "itemId",
          "type": "uint256"
        },
        {
          "internalType": "uint256",
          "name": "tokenId",
          "type": "uint256"
        },
        {
          "internalType": "uint256",
          "name": "price",
          "type": "uint256"
        },
        {
          "internalType": "address",
          "name": "seller",
          "type": "address"
        },
        {
          "internalType": "enum NftMarketPlace.itemStatus_",
          "name": "itemStatus",
          "type": "uint8"
        }
      ],
      "stateMutability": "view",
      "type": "function"
    },
    {
      "inputs": [
        {
          "internalType": "uint256",
          "name": "itemId",
          "type": "uint256"
        }
      ],
      "name": "buyMarketItem",
      "outputs": [],
      "stateMutability": "payable",
      "type": "function"
    },
    {
      "inputs": [
        {
          "internalType": "uint256",
          "name": "itemId",
          "type": "uint256"
        }
      ],
      "name": "cancelListing",
      "outputs": [],
      "stateMutability": "nonpayable",
      "type": "function"
    },
    {
      "inputs": [],
      "name": "getListingItems",
      "outputs": [
        {
          "components": [
            {
              "internalType": "uint256",
              "name": "itemId",
              "type": "uint256"
            },
            {
              "internalType": "uint256",
              "name": "tokenId",
              "type": "uint256"
            },
            {
              "internalType": "uint256",
              "name": "price",
              "type": "uint256"
            },
            {
              "internalType": "address",
              "name": "seller",
              "type": "address"
            },
            {
              "internalType": "enum NftMarketPlace.itemStatus_",
              "name": "itemStatus",
              "type": "uint8"
            }
          ],
          "internalType": "struct NftMarketPlace.MarketItem[]",
          "name": "",
          "type": "tuple[]"
        }
      ],
      "stateMutability": "view",
      "type": "function"
    },
    {
      "inputs": [],
      "name": "getListingPrice",
      "outputs": [
        {
          "internalType": "uint256",
          "name": "",
          "type": "uint256"
        }
      ],
      "stateMutability": "view",
      "type": "function"
    },
    {
      "inputs": [
        {
          "internalType": "address",
          "name": "owner_",
          "type": "address"
        }
      ],
      "name": "getMyItems",
      "outputs": [
        {
          "components": [
            {
              "internalType": "uint256",
              "name": "itemId",
              "type": "uint256"
            },
            {
              "internalType": "uint256",
              "name": "tokenId",
              "type": "uint256"
            },
            {
              "internalType": "uint256",
              "name": "price",
              "type": "uint256"
            },
            {
              "internalType": "address",
              "name": "seller",
              "type": "address"
            },
            {
              "internalType": "enum NftMarketPlace.itemStatus_",
              "name": "itemStatus",
              "type": "uint8"
            }
          ],
          "internalType": "struct NftMarketPlace.MarketItem[]",
          "name": "",
          "type": "tuple[]"
        }
      ],
      "stateMutability": "view",
      "type": "function"
    },
    {
      "inputs": [
        {
          "internalType": "uint256",
          "name": "",
          "type": "uint256"
        }
      ],
      "name": "idToMarketItem",
      "outputs": [
        {
          "internalType": "uint256",
          "name": "itemId",
          "type": "uint256"
        },
        {
          "internalType": "uint256",
          "name": "tokenId",
          "type": "uint256"
        },
        {
          "internalType": "uint256",
          "name": "price",
          "type": "uint256"
        },
        {
          "internalType": "address",
          "name": "seller",
          "type": "address"
        },
        {
          "internalType": "enum NftMarketPlace.itemStatus_",
          "name": "itemStatus",
          "type": "uint8"
        }
      ],
      "stateMutability": "view",
      "type": "function"
    },
    {
      "inputs": [
        {
          "internalType": "uint256",
          "name": "price",
          "type": "uint256"
        },
        {
          "internalType": "uint256",
          "name": "tokenId",
          "type": "uint256"
        }
      ],
      "name": "listMarketItem",
      "outputs": [
        {
          "internalType": "bool",
          "name": "",
          "type": "bool"
        }
      ],
      "stateMutability": "payable",
      "type": "function"
    },
    {
      "inputs": [],
      "name": "listingPrice",
      "outputs": [
        {
          "internalType": "uint256",
          "name": "",
          "type": "uint256"
        }
      ],
      "stateMutability": "view",
      "type": "function"
    },
    {
      "inputs": [
        {
          "internalType": "uint256",
          "name": "itemId",
          "type": "uint256"
        },
        {
          "internalType": "uint256",
          "name": "price",
          "type": "uint256"
        }
      ],
      "name": "reListNfts",
      "outputs": [],
      "stateMutability": "nonpayable",
      "type": "function"
    },
    {
      "inputs": [
        {
          "internalType": "uint256",
          "name": "itemId",
          "type": "uint256"
        }
      ],
      "name": "removeFromMarketPlace",
      "outputs": [],
      "stateMutability": "nonpayable",
      "type": "function"
    },
    {
      "inputs": [
        {
          "internalType": "address",
          "name": "nftContract_",
          "type": "address"
        }
      ],
      "name": "setNFTContractAddress",
      "outputs": [],
      "stateMutability": "nonpayable",
      "type": "function"
    },
    {
      "inputs": [
        {
          "internalType": "uint256",
          "name": "price",
          "type": "uint256"
        }
      ],
      "name": "updateListingPrice",
      "outputs": [],
      "stateMutability": "nonpayable",
      "type": "function"
    }
  ],
  "bytecode": "0x6080604052600060035534801561001557600080fd5b50600160008190555033600560006101000a81548173ffffffffffffffffffffffffffffffffffffffff021916908373ffffffffffffffffffffffffffffffffffffffff160217905550612e948061006e6000396000f3fe6080604052600436106100c25760003560e01c806336c47a771161007f578063c78f19f911610059578063c78f19f91461024e578063e61a70c014610279578063fc4dbb5f146102ba578063ff4d2016146102f7576100c2565b806336c47a77146101b9578063577256a4146101e4578063ae677aa314610225576100c2565b806312e85585146100c757806315ed2705146100f257806323949cd11461011b5780632796390c14610144578063305a67a814610174578063351901c31461019d575b600080fd5b3480156100d357600080fd5b506100dc610320565b6040516100e9919061288a565b60405180910390f35b3480156100fe57600080fd5b50610119600480360381019061011491906121e7565b61032a565b005b34801561012757600080fd5b50610142600480360381019061013d9190612195565b6106d5565b005b61015e60048036038101906101599190612210565b6107e0565b60405161016b919061266f565b60405180910390f35b34801561018057600080fd5b5061019b600480360381019061019691906121e7565b610d06565b005b6101b760048036038101906101b291906121e7565b61100a565b005b3480156101c557600080fd5b506101ce6114c2565b6040516101db919061264d565b60405180910390f35b3480156101f057600080fd5b5061020b600480360381019061020691906121e7565b6117a7565b60405161021c9594939291906128f7565b60405180910390f35b34801561023157600080fd5b5061024c600480360381019061024791906121e7565b61181a565b005b34801561025a57600080fd5b506102636118ef565b604051610270919061288a565b60405180910390f35b34801561028557600080fd5b506102a0600480360381019061029b91906121e7565b6118f5565b6040516102b19594939291906128f7565b60405180910390f35b3480156102c657600080fd5b506102e160048036038101906102dc9190612195565b611958565b6040516102ee919061264d565b60405180910390f35b34801561030357600080fd5b5061031e60048036038101906103199190612210565b611c88565b005b6000600354905090565b60026000541415610370576040517f08c379a00000000000000000000000000000000000000000000000000000000081526004016103679061284a565b60405180910390fd5b6002600081905550600160028111156103b2577f4e487b7100000000000000000000000000000000000000000000000000000000600052602160045260246000fd5b6006600083815260200190815260200160002060030160149054906101000a900460ff16600281111561040e577f4e487b7100000000000000000000000000000000000000000000000000000000600052602160045260246000fd5b141561041e5761041d81610d06565b5b61042781611fa9565b610466576040517f08c379a000000000000000000000000000000000000000000000000000000000815260040161045d906126ea565b60405180910390fd5b6006600082815260200190815260200160002060030160009054906101000a900473ffffffffffffffffffffffffffffffffffffffff1673ffffffffffffffffffffffffffffffffffffffff163373ffffffffffffffffffffffffffffffffffffffff161461050a576040517f08c379a0000000000000000000000000000000000000000000000000000000008152600401610501906127ea565b60405180910390fd5b600460009054906101000a900473ffffffffffffffffffffffffffffffffffffffff1673ffffffffffffffffffffffffffffffffffffffff166342842e0e306006600085815260200190815260200160002060030160009054906101000a900473ffffffffffffffffffffffffffffffffffffffff1660066000868152602001908152602001600020600101546040518463ffffffff1660e01b81526004016105b593929190612616565b600060405180830381600087803b1580156105cf57600080fd5b505af11580156105e3573d6000803e3d6000fd5b505050506006600082815260200190815260200160002060030160009054906101000a900473ffffffffffffffffffffffffffffffffffffffff1673ffffffffffffffffffffffffffffffffffffffff16817f701135a44270e5826bece48551493cf13bc27eab653d2ad350d2c80d326e554660405160405180910390a360066000828152602001908152602001600020600080820160009055600182016000905560028201600090556003820160006101000a81549073ffffffffffffffffffffffffffffffffffffffff02191690556003820160146101000a81549060ff02191690555050600160008190555050565b600560009054906101000a900473ffffffffffffffffffffffffffffffffffffffff1673ffffffffffffffffffffffffffffffffffffffff163373ffffffffffffffffffffffffffffffffffffffff1614610765576040517f08c379a000000000000000000000000000000000000000000000000000000000815260040161075c9061274a565b60405180910390fd5b80600460006101000a81548173ffffffffffffffffffffffffffffffffffffffff021916908373ffffffffffffffffffffffffffffffffffffffff1602179055507fea81eba1dfffa0a2b11ab9cd71ce5b81a13091ba4401a9f1b103efc7d4cbb43f816040516107d591906125fb565b60405180910390a150565b600060026000541415610828576040517f08c379a000000000000000000000000000000000000000000000000000000000815260040161081f9061284a565b60405180910390fd5b60026000819055506003543414610874576040517f08c379a000000000000000000000000000000000000000000000000000000000815260040161086b9061272a565b60405180910390fd5b600083116108b7576040517f08c379a00000000000000000000000000000000000000000000000000000000081526004016108ae906127ca565b60405180910390fd5b3373ffffffffffffffffffffffffffffffffffffffff16600460009054906101000a900473ffffffffffffffffffffffffffffffffffffffff1673ffffffffffffffffffffffffffffffffffffffff16636352211e846040518263ffffffff1660e01b8152600401610929919061288a565b60206040518083038186803b15801561094157600080fd5b505afa158015610955573d6000803e3d6000fd5b505050506040513d601f19601f8201168201806040525081019061097991906121be565b73ffffffffffffffffffffffffffffffffffffffff16146109cf576040517f08c379a00000000000000000000000000000000000000000000000000000000081526004016109c69061268a565b60405180910390fd5b600460009054906101000a900473ffffffffffffffffffffffffffffffffffffffff1673ffffffffffffffffffffffffffffffffffffffff166323b872dd3330856040518463ffffffff1660e01b8152600401610a2e93929190612616565b600060405180830381600087803b158015610a4857600080fd5b505af1158015610a5c573d6000803e3d6000fd5b50505050610a6a6001612059565b6000610a76600161206f565b905060006040518060a001604052808381526020018581526020018681526020013373ffffffffffffffffffffffffffffffffffffffff16815260200160016002811115610aed577f4e487b7100000000000000000000000000000000000000000000000000000000600052602160045260246000fd5b8152509050806006600084815260200190815260200160002060008201518160000155602082015181600101556040820151816002015560608201518160030160006101000a81548173ffffffffffffffffffffffffffffffffffffffff021916908373ffffffffffffffffffffffffffffffffffffffff16021790555060808201518160030160146101000a81548160ff02191690836002811115610bbc577f4e487b7100000000000000000000000000000000000000000000000000000000600052602160045260246000fd5b0217905550905050600781908060018154018082558091505060019003906000526020600020906004020160009091909190915060008201518160000155602082015181600101556040820151816002015560608201518160030160006101000a81548173ffffffffffffffffffffffffffffffffffffffff021916908373ffffffffffffffffffffffffffffffffffffffff16021790555060808201518160030160146101000a81548160ff02191690836002811115610ca6577f4e487b7100000000000000000000000000000000000000000000000000000000600052602160045260246000fd5b021790555050503373ffffffffffffffffffffffffffffffffffffffff1685837fac3538b3f5158158344c0c274a366a56901046daad1c2c88698e4f2216ccd96a60405160405180910390a4600192505050600160008190555092915050565b60026000541415610d4c576040517f08c379a0000000000000000000000000000000000000000000000000000000008152600401610d439061284a565b60405180910390fd5b6002600081905550610d5d81611fa9565b610d9c576040517f08c379a0000000000000000000000000000000000000000000000000000000008152600401610d93906126ea565b60405180910390fd5b60016002811115610dd6577f4e487b7100000000000000000000000000000000000000000000000000000000600052602160045260246000fd5b6006600083815260200190815260200160002060030160149054906101000a900460ff166002811115610e32577f4e487b7100000000000000000000000000000000000000000000000000000000600052602160045260246000fd5b14610e72576040517f08c379a0000000000000000000000000000000000000000000000000000000008152600401610e699061278a565b60405180910390fd5b6006600082815260200190815260200160002060030160009054906101000a900473ffffffffffffffffffffffffffffffffffffffff1673ffffffffffffffffffffffffffffffffffffffff163373ffffffffffffffffffffffffffffffffffffffff1614610f16576040517f08c379a0000000000000000000000000000000000000000000000000000000008152600401610f0d9061282a565b60405180910390fd5b60026006600083815260200190815260200160002060030160146101000a81548160ff02191690836002811115610f76577f4e487b7100000000000000000000000000000000000000000000000000000000600052602160045260246000fd5b0217905550610f856002612059565b6006600082815260200190815260200160002060030160009054906101000a900473ffffffffffffffffffffffffffffffffffffffff1673ffffffffffffffffffffffffffffffffffffffff16817f396abdcb84344ca4b5aa536a643efe3993b58ef9a2b59bb5e12170608483ca4960405160405180910390a3600160008190555050565b60026000541415611050576040517f08c379a00000000000000000000000000000000000000000000000000000000081526004016110479061284a565b60405180910390fd5b600260008190555061106181611fa9565b6110a0576040517f08c379a0000000000000000000000000000000000000000000000000000000008152600401611097906126ea565b60405180910390fd5b600160028111156110da577f4e487b7100000000000000000000000000000000000000000000000000000000600052602160045260246000fd5b6006600083815260200190815260200160002060030160149054906101000a900460ff166002811115611136577f4e487b7100000000000000000000000000000000000000000000000000000000600052602160045260246000fd5b14611176576040517f08c379a000000000000000000000000000000000000000000000000000000000815260040161116d9061278a565b60405180910390fd5b6006600082815260200190815260200160002060030160009054906101000a900473ffffffffffffffffffffffffffffffffffffffff1673ffffffffffffffffffffffffffffffffffffffff163373ffffffffffffffffffffffffffffffffffffffff16141561121b576040517f08c379a00000000000000000000000000000000000000000000000000000000081526004016112129061286a565b60405180910390fd5b60066000828152602001908152602001600020600201543414611273576040517f08c379a000000000000000000000000000000000000000000000000000000000815260040161126a9061276a565b60405180910390fd5b60006006600083815260200190815260200160002060030160146101000a81548160ff021916908360028111156112d3577f4e487b7100000000000000000000000000000000000000000000000000000000600052602160045260246000fd5b021790555060006006600083815260200190815260200160002060030160009054906101000a900473ffffffffffffffffffffffffffffffffffffffff1673ffffffffffffffffffffffffffffffffffffffff1634604051611334906125e6565b60006040518083038185875af1925050503d8060008114611371576040519150601f19603f3d011682016040523d82523d6000602084013e611376565b606091505b50509050806113ba576040517f08c379a00000000000000000000000000000000000000000000000000000000081526004016113b19061280a565b60405180910390fd5b336006600084815260200190815260200160002060030160006101000a81548173ffffffffffffffffffffffffffffffffffffffff021916908373ffffffffffffffffffffffffffffffffffffffff1602179055503373ffffffffffffffffffffffffffffffffffffffff16827f2cf358a148899c216a27d355e3cee3cf4e55c28acfc4719867662959c1ac195560066000868152602001908152602001600020600201546006600087815260200190815260200160002060030160009054906101000a900473ffffffffffffffffffffffffffffffffffffffff166040516114a49291906128a5565b60405180910390a36114b66002612059565b50600160008190555050565b606060006114d0600161206f565b905060006114de600261206f565b6114e8600161206f565b6114f291906129f5565b905060008167ffffffffffffffff811115611536577f4e487b7100000000000000000000000000000000000000000000000000000000600052604160045260246000fd5b60405190808252806020026020018201604052801561156f57816020015b61155c6120d9565b8152602001906001900390816115545790505b509050600080600190505b84811161179c57600160028111156115bb577f4e487b7100000000000000000000000000000000000000000000000000000000600052602160045260246000fd5b6006600083815260200190815260200160002060030160149054906101000a900460ff166002811115611617577f4e487b7100000000000000000000000000000000000000000000000000000000600052602160045260246000fd5b141561178957600660008281526020019081526020016000206040518060a00160405290816000820154815260200160018201548152602001600282015481526020016003820160009054906101000a900473ffffffffffffffffffffffffffffffffffffffff1673ffffffffffffffffffffffffffffffffffffffff1673ffffffffffffffffffffffffffffffffffffffff1681526020016003820160149054906101000a900460ff1660028111156116fa577f4e487b7100000000000000000000000000000000000000000000000000000000600052602160045260246000fd5b6002811115611732577f4e487b7100000000000000000000000000000000000000000000000000000000600052602160045260246000fd5b8152505083838151811061176f577f4e487b7100000000000000000000000000000000000000000000000000000000600052603260045260246000fd5b6020026020010181905250818061178590612a96565b9250505b808061179490612a96565b91505061157a565b508194505050505090565b600781815481106117b757600080fd5b90600052602060002090600402016000915090508060000154908060010154908060020154908060030160009054906101000a900473ffffffffffffffffffffffffffffffffffffffff16908060030160149054906101000a900460ff16905085565b600560009054906101000a900473ffffffffffffffffffffffffffffffffffffffff1673ffffffffffffffffffffffffffffffffffffffff163373ffffffffffffffffffffffffffffffffffffffff16146118aa576040517f08c379a00000000000000000000000000000000000000000000000000000000081526004016118a19061274a565b60405180910390fd5b7f5d781d913cac5ca30161ef613470c35ba9e441e21577dc02d334cfc4e5b8372a600354826040516118dd9291906128ce565b60405180910390a18060038190555050565b60035481565b60066020528060005260406000206000915090508060000154908060010154908060020154908060030160009054906101000a900473ffffffffffffffffffffffffffffffffffffffff16908060030160149054906101000a900460ff16905085565b60606000611966600161206f565b9050600080600190505b828111611a04578473ffffffffffffffffffffffffffffffffffffffff166006600083815260200190815260200160002060030160009054906101000a900473ffffffffffffffffffffffffffffffffffffffff1673ffffffffffffffffffffffffffffffffffffffff1614156119f1576001826119ee919061299f565b91505b80806119fc90612a96565b915050611970565b5060008167ffffffffffffffff811115611a47577f4e487b7100000000000000000000000000000000000000000000000000000000600052604160045260246000fd5b604051908082528060200260200182016040528015611a8057816020015b611a6d6120d9565b815260200190600190039081611a655790505b509050600080600190505b848111611c7b578673ffffffffffffffffffffffffffffffffffffffff166006600083815260200190815260200160002060030160009054906101000a900473ffffffffffffffffffffffffffffffffffffffff1673ffffffffffffffffffffffffffffffffffffffff161415611c6857600660008281526020019081526020016000206040518060a00160405290816000820154815260200160018201548152602001600282015481526020016003820160009054906101000a900473ffffffffffffffffffffffffffffffffffffffff1673ffffffffffffffffffffffffffffffffffffffff1673ffffffffffffffffffffffffffffffffffffffff1681526020016003820160149054906101000a900460ff166002811115611bd9577f4e487b7100000000000000000000000000000000000000000000000000000000600052602160045260246000fd5b6002811115611c11577f4e487b7100000000000000000000000000000000000000000000000000000000600052602160045260246000fd5b81525050838381518110611c4e577f4e487b7100000000000000000000000000000000000000000000000000000000600052603260045260246000fd5b60200260200101819052508180611c6490612a96565b9250505b8080611c7390612a96565b915050611a8b565b5081945050505050919050565b60026000541415611cce576040517f08c379a0000000000000000000000000000000000000000000000000000000008152600401611cc59061284a565b60405180910390fd5b6002600081905550611cdf82611fa9565b611d1e576040517f08c379a0000000000000000000000000000000000000000000000000000000008152600401611d15906126ea565b60405180910390fd5b60016002811115611d58577f4e487b7100000000000000000000000000000000000000000000000000000000600052602160045260246000fd5b6006600084815260200190815260200160002060030160149054906101000a900460ff166002811115611db4577f4e487b7100000000000000000000000000000000000000000000000000000000600052602160045260246000fd5b1415611df5576040517f08c379a0000000000000000000000000000000000000000000000000000000008152600401611dec906126aa565b60405180910390fd5b6006600083815260200190815260200160002060030160009054906101000a900473ffffffffffffffffffffffffffffffffffffffff1673ffffffffffffffffffffffffffffffffffffffff163373ffffffffffffffffffffffffffffffffffffffff1614611e99576040517f08c379a0000000000000000000000000000000000000000000000000000000008152600401611e909061270a565b60405180910390fd5b60016006600084815260200190815260200160002060030160146101000a81548160ff02191690836002811115611ef9577f4e487b7100000000000000000000000000000000000000000000000000000000600052602160045260246000fd5b0217905550806006600084815260200190815260200160002060020181905550611f23600261207d565b6006600083815260200190815260200160002060030160009054906101000a900473ffffffffffffffffffffffffffffffffffffffff1673ffffffffffffffffffffffffffffffffffffffff16827f32aa5a5e72088cec91865fb80387ab3234411743124e1769338e3b95bc1a9d3760405160405180910390a360016000819055505050565b60008073ffffffffffffffffffffffffffffffffffffffff166006600084815260200190815260200160002060030160009054906101000a900473ffffffffffffffffffffffffffffffffffffffff1673ffffffffffffffffffffffffffffffffffffffff161415612050576040517f08c379a0000000000000000000000000000000000000000000000000000000008152600401612047906127aa565b60405180910390fd5b60019050919050565b6001816000016000828254019250508190555050565b600081600001549050919050565b600081600001549050600081116120c9576040517f08c379a00000000000000000000000000000000000000000000000000000000081526004016120c0906126ca565b60405180910390fd5b6001810382600001819055505050565b6040518060a00160405280600081526020016000815260200160008152602001600073ffffffffffffffffffffffffffffffffffffffff16815260200160006002811115612150577f4e487b7100000000000000000000000000000000000000000000000000000000600052602160045260246000fd5b81525090565b60008135905061216581612e30565b92915050565b60008151905061217a81612e30565b92915050565b60008135905061218f81612e47565b92915050565b6000602082840312156121a757600080fd5b60006121b584828501612156565b91505092915050565b6000602082840312156121d057600080fd5b60006121de8482850161216b565b91505092915050565b6000602082840312156121f957600080fd5b600061220784828501612180565b91505092915050565b6000806040838503121561222357600080fd5b600061223185828601612180565b925050602061224285828601612180565b9150509250929050565b60006122588383612560565b60a08301905092915050565b61226d81612a29565b82525050565b61227c81612a29565b82525050565b600061228d8261295a565b6122978185612972565b93506122a28361294a565b8060005b838110156122d35781516122ba888261224c565b97506122c583612965565b9250506001810190506122a6565b5085935050505092915050565b6122e981612a3b565b82525050565b6122f881612a84565b82525050565b61230781612a84565b82525050565b600061231a601b8361298e565b915061232582612b3d565b602082019050919050565b600061233d60138361298e565b915061234882612b66565b602082019050919050565b6000612360601b8361298e565b915061236b82612b8f565b602082019050919050565b600061238360138361298e565b915061238e82612bb8565b602082019050919050565b60006123a6601f8361298e565b91506123b182612be1565b602082019050919050565b60006123c960288361298e565b91506123d482612c0a565b604082019050919050565b60006123ec60278361298e565b91506123f782612c59565b604082019050919050565b600061240f60128361298e565b915061241a82612ca8565b602082019050919050565b6000612432601a8361298e565b915061243d82612cd1565b602082019050919050565b600061245560128361298e565b915061246082612cfa565b602082019050919050565b600061247860118361298e565b915061248382612d23565b602082019050919050565b600061249b601f8361298e565b91506124a682612d4c565b602082019050919050565b60006124be600083612983565b91506124c982612d75565b600082019050919050565b60006124e1600f8361298e565b91506124ec82612d78565b602082019050919050565b6000612504601f8361298e565b915061250f82612da1565b602082019050919050565b6000612527601f8361298e565b915061253282612dca565b602082019050919050565b600061254a601a8361298e565b915061255582612df3565b602082019050919050565b60a08201600082015161257660008501826125c8565b50602082015161258960208501826125c8565b50604082015161259c60408501826125c8565b5060608201516125af6060850182612264565b5060808201516125c260808501826122ef565b50505050565b6125d181612a7a565b82525050565b6125e081612a7a565b82525050565b60006125f1826124b1565b9150819050919050565b60006020820190506126106000830184612273565b92915050565b600060608201905061262b6000830186612273565b6126386020830185612273565b61264560408301846125d7565b949350505050565b600060208201905081810360008301526126678184612282565b905092915050565b600060208201905061268460008301846122e0565b92915050565b600060208201905081810360008301526126a38161230d565b9050919050565b600060208201905081810360008301526126c381612330565b9050919050565b600060208201905081810360008301526126e381612353565b9050919050565b6000602082019050818103600083015261270381612376565b9050919050565b6000602082019050818103600083015261272381612399565b9050919050565b60006020820190508181036000830152612743816123bc565b9050919050565b60006020820190508181036000830152612763816123df565b9050919050565b6000602082019050818103600083015261278381612402565b9050919050565b600060208201905081810360008301526127a381612425565b9050919050565b600060208201905081810360008301526127c381612448565b9050919050565b600060208201905081810360008301526127e38161246b565b9050919050565b600060208201905081810360008301526128038161248e565b9050919050565b60006020820190508181036000830152612823816124d4565b9050919050565b60006020820190508181036000830152612843816124f7565b9050919050565b600060208201905081810360008301526128638161251a565b9050919050565b600060208201905081810360008301526128838161253d565b9050919050565b600060208201905061289f60008301846125d7565b92915050565b60006040820190506128ba60008301856125d7565b6128c76020830184612273565b9392505050565b60006040820190506128e360008301856125d7565b6128f060208301846125d7565b9392505050565b600060a08201905061290c60008301886125d7565b61291960208301876125d7565b61292660408301866125d7565b6129336060830185612273565b61294060808301846122fe565b9695505050505050565b6000819050602082019050919050565b600081519050919050565b6000602082019050919050565b600082825260208201905092915050565b600081905092915050565b600082825260208201905092915050565b60006129aa82612a7a565b91506129b583612a7a565b9250827fffffffffffffffffffffffffffffffffffffffffffffffffffffffffffffffff038211156129ea576129e9612adf565b5b828201905092915050565b6000612a0082612a7a565b9150612a0b83612a7a565b925082821015612a1e57612a1d612adf565b5b828203905092915050565b6000612a3482612a5a565b9050919050565b60008115159050919050565b6000819050612a5582612e1c565b919050565b600073ffffffffffffffffffffffffffffffffffffffff82169050919050565b6000819050919050565b6000612a8f82612a47565b9050919050565b6000612aa182612a7a565b91507fffffffffffffffffffffffffffffffffffffffffffffffffffffffffffffffff821415612ad457612ad3612adf565b5b600182019050919050565b7f4e487b7100000000000000000000000000000000000000000000000000000000600052601160045260246000fd5b7f4e487b7100000000000000000000000000000000000000000000000000000000600052602160045260246000fd5b7f6f6e6c79206f776e65722063616e206c69737420746865206e66740000000000600082015250565b7f6974656d20616c7265616479206c697374656400000000000000000000000000600082015250565b7f436f756e7465723a2064656372656d656e74206f766572666c6f770000000000600082015250565b7f6974656d4964206e6f74206176696c61626c6500000000000000000000000000600082015250565b7f6f6e6c792073656c6c65722063616e2072656c69737420746865206974656d00600082015250565b7f73656e6420746865206c697374696e67206665653a20247b6765744c6973746960008201527f6e6750726963657d000000000000000000000000000000000000000000000000602082015250565b7f6f6e6c79206f776e65722063616e2075706461746520746865206c697374696e60008201527f6720707269636500000000000000000000000000000000000000000000000000602082015250565b7f496e73756666696369656e742066756e64730000000000000000000000000000600082015250565b7f6974656d206e6f74206176696c61626c6520666f722073616c65000000000000600082015250565b7f6974656d20646f65736e27742065786973740000000000000000000000000000600082015250565b7f70726963652063616e6e6f742062652030000000000000000000000000000000600082015250565b7f6f6e6c792073656c6c65722063616e2072656d6f766520746865206974656d00600082015250565b50565b7f7472616e73666572206661696c65640000000000000000000000000000000000600082015250565b7f6f6e6c792073656c6c65722063616e2063616e63656c20746865206974656d00600082015250565b7f5265656e7472616e637947756172643a207265656e7472616e742063616c6c00600082015250565b7f73656c6c65722063616e6e6f742062757920746865206974656d000000000000600082015250565b60038110612e2d57612e2c612b0e565b5b50565b612e3981612a29565b8114612e4457600080fd5b50565b612e5081612a7a565b8114612e5b57600080fd5b5056fea26469706673582212206beb3641c69d91c94122e20542346bb098e4fcbad24da8762d3977a5a430967064736f6c63430008040033",
  "linkReferences": {},
  "deployedLinkReferences": {}
}