{
  "_format": "hh-sol-artifact-1",
  "contractName": "NftMarketPlace",
  "sourceName": "src/backend/contracts/nftMarket.sol",
  "abi": [
    {
      "inputs": [],
      "stateMutability": "nonpayable",
      "type": "constructor"
    },
    {
      "anonymous": false,
      "inputs": [
        {
          "indexed": true,
          "internalType": "uint256",
          "name": "itemId",
          "type": "uint256"
        },
        {
          "indexed": true,
          "internalType": "address",
          "name": "buyer",
          "type": "address"
        },
        {
          "indexed": false,
          "internalType": "uint256",
          "name": "price",
          "type": "uint256"
        },
        {
          "indexed": false,
          "internalType": "address",
          "name": "seller",
          "type": "address"
        }
      ],
      "name": "buyItem_",
      "type": "event"
    },
    {
      "anonymous": false,
      "inputs": [
        {
          "indexed": true,
          "internalType": "uint256",
          "name": "itemId",
          "type": "uint256"
        },
        {
          "indexed": true,
          "internalType": "address",
          "name": "seller",
          "type": "address"
        }
      ],
      "name": "cancel_",
      "type": "event"
    },
    {
      "anonymous": false,
      "inputs": [
        {
          "indexed": true,
          "internalType": "uint256",
          "name": "itemId",
          "type": "uint256"
        },
        {
          "indexed": true,
          "internalType": "uint256",
          "name": "price",
          "type": "uint256"
        },
        {
          "indexed": true,
          "internalType": "address",
          "name": "seller_",
          "type": "address"
        }
      ],
      "name": "listMarketItem_",
      "type": "event"
    },
    {
      "anonymous": false,
      "inputs": [
        {
          "indexed": true,
          "internalType": "uint256",
          "name": "itemId",
          "type": "uint256"
        },
        {
          "indexed": true,
          "internalType": "address",
          "name": "seller",
          "type": "address"
        }
      ],
      "name": "relisted_",
      "type": "event"
    },
    {
      "anonymous": false,
      "inputs": [
        {
          "indexed": true,
          "internalType": "uint256",
          "name": "itemId",
          "type": "uint256"
        },
        {
          "indexed": true,
          "internalType": "address",
          "name": "seller",
          "type": "address"
        }
      ],
      "name": "removed_",
      "type": "event"
    },
    {
      "anonymous": false,
      "inputs": [
        {
          "indexed": false,
          "internalType": "address",
          "name": "newNftContract",
          "type": "address"
        }
      ],
      "name": "setNFTContractAddress_",
      "type": "event"
    },
    {
      "anonymous": false,
      "inputs": [
        {
          "indexed": false,
          "internalType": "uint256",
          "name": "oldPrpice",
          "type": "uint256"
        },
        {
          "indexed": false,
          "internalType": "uint256",
          "name": "newPrice",
          "type": "uint256"
        }
      ],
      "name": "updateListingPrice_",
      "type": "event"
    },
    {
      "inputs": [
        {
          "internalType": "uint256",
          "name": "",
          "type": "uint256"
        }
      ],
      "name": "MarketItems",
      "outputs": [
        {
          "internalType": "uint256",
          "name": "itemId",
          "type": "uint256"
        },
        {
          "internalType": "uint256",
          "name": "tokenId",
          "type": "uint256"
        },
        {
          "internalType": "uint256",
          "name": "price",
          "type": "uint256"
        },
        {
          "internalType": "address",
          "name": "seller",
          "type": "address"
        },
        {
          "internalType": "enum NftMarketPlace.itemStatus_",
          "name": "itemStatus",
          "type": "uint8"
        }
      ],
      "stateMutability": "view",
      "type": "function"
    },
    {
      "inputs": [
        {
          "internalType": "uint256",
          "name": "itemId",
          "type": "uint256"
        }
      ],
      "name": "buyMarketItem",
      "outputs": [],
      "stateMutability": "payable",
      "type": "function"
    },
    {
      "inputs": [
        {
          "internalType": "uint256",
          "name": "itemId",
          "type": "uint256"
        }
      ],
      "name": "cancelListing",
      "outputs": [],
      "stateMutability": "nonpayable",
      "type": "function"
    },
    {
      "inputs": [],
      "name": "getListingItems",
      "outputs": [
        {
          "components": [
            {
              "internalType": "uint256",
              "name": "itemId",
              "type": "uint256"
            },
            {
              "internalType": "uint256",
              "name": "tokenId",
              "type": "uint256"
            },
            {
              "internalType": "uint256",
              "name": "price",
              "type": "uint256"
            },
            {
              "internalType": "address",
              "name": "seller",
              "type": "address"
            },
            {
              "internalType": "enum NftMarketPlace.itemStatus_",
              "name": "itemStatus",
              "type": "uint8"
            }
          ],
          "internalType": "struct NftMarketPlace.MarketItem[]",
          "name": "",
          "type": "tuple[]"
        }
      ],
      "stateMutability": "view",
      "type": "function"
    },
    {
      "inputs": [],
      "name": "getListingPrice",
      "outputs": [
        {
          "internalType": "uint256",
          "name": "",
          "type": "uint256"
        }
      ],
      "stateMutability": "view",
      "type": "function"
    },
    {
      "inputs": [
        {
          "internalType": "address",
          "name": "owner_",
          "type": "address"
        }
      ],
      "name": "getMyItems",
      "outputs": [
        {
          "components": [
            {
              "internalType": "uint256",
              "name": "itemId",
              "type": "uint256"
            },
            {
              "internalType": "uint256",
              "name": "tokenId",
              "type": "uint256"
            },
            {
              "internalType": "uint256",
              "name": "price",
              "type": "uint256"
            },
            {
              "internalType": "address",
              "name": "seller",
              "type": "address"
            },
            {
              "internalType": "enum NftMarketPlace.itemStatus_",
              "name": "itemStatus",
              "type": "uint8"
            }
          ],
          "internalType": "struct NftMarketPlace.MarketItem[]",
          "name": "",
          "type": "tuple[]"
        }
      ],
      "stateMutability": "view",
      "type": "function"
    },
    {
      "inputs": [
        {
          "internalType": "uint256",
          "name": "",
          "type": "uint256"
        }
      ],
      "name": "idToMarketItem",
      "outputs": [
        {
          "internalType": "uint256",
          "name": "itemId",
          "type": "uint256"
        },
        {
          "internalType": "uint256",
          "name": "tokenId",
          "type": "uint256"
        },
        {
          "internalType": "uint256",
          "name": "price",
          "type": "uint256"
        },
        {
          "internalType": "address",
          "name": "seller",
          "type": "address"
        },
        {
          "internalType": "enum NftMarketPlace.itemStatus_",
          "name": "itemStatus",
          "type": "uint8"
        }
      ],
      "stateMutability": "view",
      "type": "function"
    },
    {
      "inputs": [
        {
          "internalType": "uint256",
          "name": "price",
          "type": "uint256"
        },
        {
          "internalType": "uint256",
          "name": "tokenId",
          "type": "uint256"
        }
      ],
      "name": "listMarketItem",
      "outputs": [
        {
          "internalType": "bool",
          "name": "",
          "type": "bool"
        }
      ],
      "stateMutability": "payable",
      "type": "function"
    },
    {
      "inputs": [],
      "name": "listingPrice",
      "outputs": [
        {
          "internalType": "uint256",
          "name": "",
          "type": "uint256"
        }
      ],
      "stateMutability": "view",
      "type": "function"
    },
    {
      "inputs": [
        {
          "internalType": "uint256",
          "name": "itemId",
          "type": "uint256"
        },
        {
          "internalType": "uint256",
          "name": "price",
          "type": "uint256"
        }
      ],
      "name": "reListNfts",
      "outputs": [],
      "stateMutability": "nonpayable",
      "type": "function"
    },
    {
      "inputs": [
        {
          "internalType": "uint256",
          "name": "itemId",
          "type": "uint256"
        }
      ],
      "name": "removeFromMarketPlace",
      "outputs": [],
      "stateMutability": "nonpayable",
      "type": "function"
    },
    {
      "inputs": [
        {
          "internalType": "address",
          "name": "nftContract_",
          "type": "address"
        }
      ],
      "name": "setNFTContractAddress",
      "outputs": [],
      "stateMutability": "nonpayable",
      "type": "function"
    },
    {
      "inputs": [
        {
          "internalType": "uint256",
          "name": "price",
          "type": "uint256"
        }
      ],
      "name": "updateListingPrice",
      "outputs": [],
      "stateMutability": "nonpayable",
      "type": "function"
    }
  ],
  "bytecode": "0x6080604052600060035534801561001557600080fd5b50600160008190555033600560006101000a81548173ffffffffffffffffffffffffffffffffffffffff021916908373ffffffffffffffffffffffffffffffffffffffff160217905550612eea8061006e6000396000f3fe6080604052600436106100c25760003560e01c806336c47a771161007f578063c78f19f911610059578063c78f19f91461024e578063e61a70c014610279578063fc4dbb5f146102ba578063ff4d2016146102f7576100c2565b806336c47a77146101b9578063577256a4146101e4578063ae677aa314610225576100c2565b806312e85585146100c757806315ed2705146100f257806323949cd11461011b5780632796390c14610144578063305a67a814610174578063351901c31461019d575b600080fd5b3480156100d357600080fd5b506100dc610320565b6040516100e991906128e0565b60405180910390f35b3480156100fe57600080fd5b506101196004803603810190610114919061223d565b61032a565b005b34801561012757600080fd5b50610142600480360381019061013d91906121eb565b6106d5565b005b61015e60048036038101906101599190612266565b6107e0565b60405161016b91906126c5565b60405180910390f35b34801561018057600080fd5b5061019b6004803603810190610196919061223d565b610d06565b005b6101b760048036038101906101b2919061223d565b61100a565b005b3480156101c557600080fd5b506101ce611527565b6040516101db91906126a3565b60405180910390f35b3480156101f057600080fd5b5061020b6004803603810190610206919061223d565b6117fd565b60405161021c95949392919061294d565b60405180910390f35b34801561023157600080fd5b5061024c6004803603810190610247919061223d565b611870565b005b34801561025a57600080fd5b50610263611945565b60405161027091906128e0565b60405180910390f35b34801561028557600080fd5b506102a0600480360381019061029b919061223d565b61194b565b6040516102b195949392919061294d565b60405180910390f35b3480156102c657600080fd5b506102e160048036038101906102dc91906121eb565b6119ae565b6040516102ee91906126a3565b60405180910390f35b34801561030357600080fd5b5061031e60048036038101906103199190612266565b611cde565b005b6000600354905090565b60026000541415610370576040517f08c379a0000000000000000000000000000000000000000000000000000000008152600401610367906128a0565b60405180910390fd5b6002600081905550600160028111156103b2577f4e487b7100000000000000000000000000000000000000000000000000000000600052602160045260246000fd5b6006600083815260200190815260200160002060030160149054906101000a900460ff16600281111561040e577f4e487b7100000000000000000000000000000000000000000000000000000000600052602160045260246000fd5b141561041e5761041d81610d06565b5b61042781611fff565b610466576040517f08c379a000000000000000000000000000000000000000000000000000000000815260040161045d90612740565b60405180910390fd5b6006600082815260200190815260200160002060030160009054906101000a900473ffffffffffffffffffffffffffffffffffffffff1673ffffffffffffffffffffffffffffffffffffffff163373ffffffffffffffffffffffffffffffffffffffff161461050a576040517f08c379a000000000000000000000000000000000000000000000000000000000815260040161050190612840565b60405180910390fd5b600460009054906101000a900473ffffffffffffffffffffffffffffffffffffffff1673ffffffffffffffffffffffffffffffffffffffff166342842e0e306006600085815260200190815260200160002060030160009054906101000a900473ffffffffffffffffffffffffffffffffffffffff1660066000868152602001908152602001600020600101546040518463ffffffff1660e01b81526004016105b59392919061266c565b600060405180830381600087803b1580156105cf57600080fd5b505af11580156105e3573d6000803e3d6000fd5b505050506006600082815260200190815260200160002060030160009054906101000a900473ffffffffffffffffffffffffffffffffffffffff1673ffffffffffffffffffffffffffffffffffffffff16817f701135a44270e5826bece48551493cf13bc27eab653d2ad350d2c80d326e554660405160405180910390a360066000828152602001908152602001600020600080820160009055600182016000905560028201600090556003820160006101000a81549073ffffffffffffffffffffffffffffffffffffffff02191690556003820160146101000a81549060ff02191690555050600160008190555050565b600560009054906101000a900473ffffffffffffffffffffffffffffffffffffffff1673ffffffffffffffffffffffffffffffffffffffff163373ffffffffffffffffffffffffffffffffffffffff1614610765576040517f08c379a000000000000000000000000000000000000000000000000000000000815260040161075c906127a0565b60405180910390fd5b80600460006101000a81548173ffffffffffffffffffffffffffffffffffffffff021916908373ffffffffffffffffffffffffffffffffffffffff1602179055507fea81eba1dfffa0a2b11ab9cd71ce5b81a13091ba4401a9f1b103efc7d4cbb43f816040516107d59190612651565b60405180910390a150565b600060026000541415610828576040517f08c379a000000000000000000000000000000000000000000000000000000000815260040161081f906128a0565b60405180910390fd5b60026000819055506003543414610874576040517f08c379a000000000000000000000000000000000000000000000000000000000815260040161086b90612780565b60405180910390fd5b600083116108b7576040517f08c379a00000000000000000000000000000000000000000000000000000000081526004016108ae90612820565b60405180910390fd5b3373ffffffffffffffffffffffffffffffffffffffff16600460009054906101000a900473ffffffffffffffffffffffffffffffffffffffff1673ffffffffffffffffffffffffffffffffffffffff16636352211e846040518263ffffffff1660e01b815260040161092991906128e0565b60206040518083038186803b15801561094157600080fd5b505afa158015610955573d6000803e3d6000fd5b505050506040513d601f19601f820116820180604052508101906109799190612214565b73ffffffffffffffffffffffffffffffffffffffff16146109cf576040517f08c379a00000000000000000000000000000000000000000000000000000000081526004016109c6906126e0565b60405180910390fd5b600460009054906101000a900473ffffffffffffffffffffffffffffffffffffffff1673ffffffffffffffffffffffffffffffffffffffff166323b872dd3330856040518463ffffffff1660e01b8152600401610a2e9392919061266c565b600060405180830381600087803b158015610a4857600080fd5b505af1158015610a5c573d6000803e3d6000fd5b50505050610a6a60016120af565b6000610a7660016120c5565b905060006040518060a001604052808381526020018581526020018681526020013373ffffffffffffffffffffffffffffffffffffffff16815260200160016002811115610aed577f4e487b7100000000000000000000000000000000000000000000000000000000600052602160045260246000fd5b8152509050806006600084815260200190815260200160002060008201518160000155602082015181600101556040820151816002015560608201518160030160006101000a81548173ffffffffffffffffffffffffffffffffffffffff021916908373ffffffffffffffffffffffffffffffffffffffff16021790555060808201518160030160146101000a81548160ff02191690836002811115610bbc577f4e487b7100000000000000000000000000000000000000000000000000000000600052602160045260246000fd5b0217905550905050600781908060018154018082558091505060019003906000526020600020906004020160009091909190915060008201518160000155602082015181600101556040820151816002015560608201518160030160006101000a81548173ffffffffffffffffffffffffffffffffffffffff021916908373ffffffffffffffffffffffffffffffffffffffff16021790555060808201518160030160146101000a81548160ff02191690836002811115610ca6577f4e487b7100000000000000000000000000000000000000000000000000000000600052602160045260246000fd5b021790555050503373ffffffffffffffffffffffffffffffffffffffff1685837fac3538b3f5158158344c0c274a366a56901046daad1c2c88698e4f2216ccd96a60405160405180910390a4600192505050600160008190555092915050565b60026000541415610d4c576040517f08c379a0000000000000000000000000000000000000000000000000000000008152600401610d43906128a0565b60405180910390fd5b6002600081905550610d5d81611fff565b610d9c576040517f08c379a0000000000000000000000000000000000000000000000000000000008152600401610d9390612740565b60405180910390fd5b60016002811115610dd6577f4e487b7100000000000000000000000000000000000000000000000000000000600052602160045260246000fd5b6006600083815260200190815260200160002060030160149054906101000a900460ff166002811115610e32577f4e487b7100000000000000000000000000000000000000000000000000000000600052602160045260246000fd5b14610e72576040517f08c379a0000000000000000000000000000000000000000000000000000000008152600401610e69906127e0565b60405180910390fd5b6006600082815260200190815260200160002060030160009054906101000a900473ffffffffffffffffffffffffffffffffffffffff1673ffffffffffffffffffffffffffffffffffffffff163373ffffffffffffffffffffffffffffffffffffffff1614610f16576040517f08c379a0000000000000000000000000000000000000000000000000000000008152600401610f0d90612880565b60405180910390fd5b60026006600083815260200190815260200160002060030160146101000a81548160ff02191690836002811115610f76577f4e487b7100000000000000000000000000000000000000000000000000000000600052602160045260246000fd5b0217905550610f8560026120af565b6006600082815260200190815260200160002060030160009054906101000a900473ffffffffffffffffffffffffffffffffffffffff1673ffffffffffffffffffffffffffffffffffffffff16817f396abdcb84344ca4b5aa536a643efe3993b58ef9a2b59bb5e12170608483ca4960405160405180910390a3600160008190555050565b60026000541415611050576040517f08c379a0000000000000000000000000000000000000000000000000000000008152600401611047906128a0565b60405180910390fd5b600260008190555061106181611fff565b6110a0576040517f08c379a000000000000000000000000000000000000000000000000000000000815260040161109790612740565b60405180910390fd5b600160028111156110da577f4e487b7100000000000000000000000000000000000000000000000000000000600052602160045260246000fd5b6006600083815260200190815260200160002060030160149054906101000a900460ff166002811115611136577f4e487b7100000000000000000000000000000000000000000000000000000000600052602160045260246000fd5b14611176576040517f08c379a000000000000000000000000000000000000000000000000000000000815260040161116d906127e0565b60405180910390fd5b6006600082815260200190815260200160002060030160009054906101000a900473ffffffffffffffffffffffffffffffffffffffff1673ffffffffffffffffffffffffffffffffffffffff163373ffffffffffffffffffffffffffffffffffffffff16141561121b576040517f08c379a0000000000000000000000000000000000000000000000000000000008152600401611212906128c0565b60405180910390fd5b60066000828152602001908152602001600020600201543414611273576040517f08c379a000000000000000000000000000000000000000000000000000000000815260040161126a906127c0565b60405180910390fd5b60006006600083815260200190815260200160002060030160146101000a81548160ff021916908360028111156112d3577f4e487b7100000000000000000000000000000000000000000000000000000000600052602160045260246000fd5b021790555060006006600083815260200190815260200160002060030160009054906101000a900473ffffffffffffffffffffffffffffffffffffffff1673ffffffffffffffffffffffffffffffffffffffff16346040516113349061263c565b60006040518083038185875af1925050503d8060008114611371576040519150601f19603f3d011682016040523d82523d6000602084013e611376565b606091505b50509050806113ba576040517f08c379a00000000000000000000000000000000000000000000000000000000081526004016113b190612860565b60405180910390fd5b336006600084815260200190815260200160002060030160006101000a81548173ffffffffffffffffffffffffffffffffffffffff021916908373ffffffffffffffffffffffffffffffffffffffff16021790555060006006600084815260200190815260200160002060030160146101000a81548160ff0219169083600281111561146f577f4e487b7100000000000000000000000000000000000000000000000000000000600052602160045260246000fd5b02179055503373ffffffffffffffffffffffffffffffffffffffff16827f2cf358a148899c216a27d355e3cee3cf4e55c28acfc4719867662959c1ac195560066000868152602001908152602001600020600201546006600087815260200190815260200160002060030160009054906101000a900473ffffffffffffffffffffffffffffffffffffffff166040516115099291906128fb565b60405180910390a361151b60026120af565b50600160008190555050565b6060600061153560026120c5565b61153f60016120c5565b6115499190612a4b565b905060008167ffffffffffffffff81111561158d577f4e487b7100000000000000000000000000000000000000000000000000000000600052604160045260246000fd5b6040519080825280602002602001820160405280156115c657816020015b6115b361212f565b8152602001906001900390816115ab5790505b509050600080600190505b8381116117f35760016002811115611612577f4e487b7100000000000000000000000000000000000000000000000000000000600052602160045260246000fd5b6006600083815260200190815260200160002060030160149054906101000a900460ff16600281111561166e577f4e487b7100000000000000000000000000000000000000000000000000000000600052602160045260246000fd5b14156117e057600660008281526020019081526020016000206040518060a00160405290816000820154815260200160018201548152602001600282015481526020016003820160009054906101000a900473ffffffffffffffffffffffffffffffffffffffff1673ffffffffffffffffffffffffffffffffffffffff1673ffffffffffffffffffffffffffffffffffffffff1681526020016003820160149054906101000a900460ff166002811115611751577f4e487b7100000000000000000000000000000000000000000000000000000000600052602160045260246000fd5b6002811115611789577f4e487b7100000000000000000000000000000000000000000000000000000000600052602160045260246000fd5b815250508383815181106117c6577f4e487b7100000000000000000000000000000000000000000000000000000000600052603260045260246000fd5b602002602001018190525081806117dc90612aec565b9250505b80806117eb90612aec565b9150506115d1565b5081935050505090565b6007818154811061180d57600080fd5b90600052602060002090600402016000915090508060000154908060010154908060020154908060030160009054906101000a900473ffffffffffffffffffffffffffffffffffffffff16908060030160149054906101000a900460ff16905085565b600560009054906101000a900473ffffffffffffffffffffffffffffffffffffffff1673ffffffffffffffffffffffffffffffffffffffff163373ffffffffffffffffffffffffffffffffffffffff1614611900576040517f08c379a00000000000000000000000000000000000000000000000000000000081526004016118f7906127a0565b60405180910390fd5b7f5d781d913cac5ca30161ef613470c35ba9e441e21577dc02d334cfc4e5b8372a60035482604051611933929190612924565b60405180910390a18060038190555050565b60035481565b60066020528060005260406000206000915090508060000154908060010154908060020154908060030160009054906101000a900473ffffffffffffffffffffffffffffffffffffffff16908060030160149054906101000a900460ff16905085565b606060006119bc60016120c5565b9050600080600190505b828111611a5a578473ffffffffffffffffffffffffffffffffffffffff166006600083815260200190815260200160002060030160009054906101000a900473ffffffffffffffffffffffffffffffffffffffff1673ffffffffffffffffffffffffffffffffffffffff161415611a4757600182611a4491906129f5565b91505b8080611a5290612aec565b9150506119c6565b5060008167ffffffffffffffff811115611a9d577f4e487b7100000000000000000000000000000000000000000000000000000000600052604160045260246000fd5b604051908082528060200260200182016040528015611ad657816020015b611ac361212f565b815260200190600190039081611abb5790505b509050600080600190505b848111611cd1578673ffffffffffffffffffffffffffffffffffffffff166006600083815260200190815260200160002060030160009054906101000a900473ffffffffffffffffffffffffffffffffffffffff1673ffffffffffffffffffffffffffffffffffffffff161415611cbe57600660008281526020019081526020016000206040518060a00160405290816000820154815260200160018201548152602001600282015481526020016003820160009054906101000a900473ffffffffffffffffffffffffffffffffffffffff1673ffffffffffffffffffffffffffffffffffffffff1673ffffffffffffffffffffffffffffffffffffffff1681526020016003820160149054906101000a900460ff166002811115611c2f577f4e487b7100000000000000000000000000000000000000000000000000000000600052602160045260246000fd5b6002811115611c67577f4e487b7100000000000000000000000000000000000000000000000000000000600052602160045260246000fd5b81525050838381518110611ca4577f4e487b7100000000000000000000000000000000000000000000000000000000600052603260045260246000fd5b60200260200101819052508180611cba90612aec565b9250505b8080611cc990612aec565b915050611ae1565b5081945050505050919050565b60026000541415611d24576040517f08c379a0000000000000000000000000000000000000000000000000000000008152600401611d1b906128a0565b60405180910390fd5b6002600081905550611d3582611fff565b611d74576040517f08c379a0000000000000000000000000000000000000000000000000000000008152600401611d6b90612740565b60405180910390fd5b60016002811115611dae577f4e487b7100000000000000000000000000000000000000000000000000000000600052602160045260246000fd5b6006600084815260200190815260200160002060030160149054906101000a900460ff166002811115611e0a577f4e487b7100000000000000000000000000000000000000000000000000000000600052602160045260246000fd5b1415611e4b576040517f08c379a0000000000000000000000000000000000000000000000000000000008152600401611e4290612700565b60405180910390fd5b6006600083815260200190815260200160002060030160009054906101000a900473ffffffffffffffffffffffffffffffffffffffff1673ffffffffffffffffffffffffffffffffffffffff163373ffffffffffffffffffffffffffffffffffffffff1614611eef576040517f08c379a0000000000000000000000000000000000000000000000000000000008152600401611ee690612760565b60405180910390fd5b60016006600084815260200190815260200160002060030160146101000a81548160ff02191690836002811115611f4f577f4e487b7100000000000000000000000000000000000000000000000000000000600052602160045260246000fd5b0217905550806006600084815260200190815260200160002060020181905550611f7960026120d3565b6006600083815260200190815260200160002060030160009054906101000a900473ffffffffffffffffffffffffffffffffffffffff1673ffffffffffffffffffffffffffffffffffffffff16827f32aa5a5e72088cec91865fb80387ab3234411743124e1769338e3b95bc1a9d3760405160405180910390a360016000819055505050565b60008073ffffffffffffffffffffffffffffffffffffffff166006600084815260200190815260200160002060030160009054906101000a900473ffffffffffffffffffffffffffffffffffffffff1673ffffffffffffffffffffffffffffffffffffffff1614156120a6576040517f08c379a000000000000000000000000000000000000000000000000000000000815260040161209d90612800565b60405180910390fd5b60019050919050565b6001816000016000828254019250508190555050565b600081600001549050919050565b6000816000015490506000811161211f576040517f08c379a000000000000000000000000000000000000000000000000000000000815260040161211690612720565b60405180910390fd5b6001810382600001819055505050565b6040518060a00160405280600081526020016000815260200160008152602001600073ffffffffffffffffffffffffffffffffffffffff168152602001600060028111156121a6577f4e487b7100000000000000000000000000000000000000000000000000000000600052602160045260246000fd5b81525090565b6000813590506121bb81612e86565b92915050565b6000815190506121d081612e86565b92915050565b6000813590506121e581612e9d565b92915050565b6000602082840312156121fd57600080fd5b600061220b848285016121ac565b91505092915050565b60006020828403121561222657600080fd5b6000612234848285016121c1565b91505092915050565b60006020828403121561224f57600080fd5b600061225d848285016121d6565b91505092915050565b6000806040838503121561227957600080fd5b6000612287858286016121d6565b9250506020612298858286016121d6565b9150509250929050565b60006122ae83836125b6565b60a08301905092915050565b6122c381612a7f565b82525050565b6122d281612a7f565b82525050565b60006122e3826129b0565b6122ed81856129c8565b93506122f8836129a0565b8060005b8381101561232957815161231088826122a2565b975061231b836129bb565b9250506001810190506122fc565b5085935050505092915050565b61233f81612a91565b82525050565b61234e81612ada565b82525050565b61235d81612ada565b82525050565b6000612370601b836129e4565b915061237b82612b93565b602082019050919050565b60006123936013836129e4565b915061239e82612bbc565b602082019050919050565b60006123b6601b836129e4565b91506123c182612be5565b602082019050919050565b60006123d96013836129e4565b91506123e482612c0e565b602082019050919050565b60006123fc601f836129e4565b915061240782612c37565b602082019050919050565b600061241f6028836129e4565b915061242a82612c60565b604082019050919050565b60006124426027836129e4565b915061244d82612caf565b604082019050919050565b60006124656012836129e4565b915061247082612cfe565b602082019050919050565b6000612488601a836129e4565b915061249382612d27565b602082019050919050565b60006124ab6012836129e4565b91506124b682612d50565b602082019050919050565b60006124ce6011836129e4565b91506124d982612d79565b602082019050919050565b60006124f1601f836129e4565b91506124fc82612da2565b602082019050919050565b60006125146000836129d9565b915061251f82612dcb565b600082019050919050565b6000612537600f836129e4565b915061254282612dce565b602082019050919050565b600061255a601f836129e4565b915061256582612df7565b602082019050919050565b600061257d601f836129e4565b915061258882612e20565b602082019050919050565b60006125a0601a836129e4565b91506125ab82612e49565b602082019050919050565b60a0820160008201516125cc600085018261261e565b5060208201516125df602085018261261e565b5060408201516125f2604085018261261e565b50606082015161260560608501826122ba565b5060808201516126186080850182612345565b50505050565b61262781612ad0565b82525050565b61263681612ad0565b82525050565b600061264782612507565b9150819050919050565b600060208201905061266660008301846122c9565b92915050565b600060608201905061268160008301866122c9565b61268e60208301856122c9565b61269b604083018461262d565b949350505050565b600060208201905081810360008301526126bd81846122d8565b905092915050565b60006020820190506126da6000830184612336565b92915050565b600060208201905081810360008301526126f981612363565b9050919050565b6000602082019050818103600083015261271981612386565b9050919050565b60006020820190508181036000830152612739816123a9565b9050919050565b60006020820190508181036000830152612759816123cc565b9050919050565b60006020820190508181036000830152612779816123ef565b9050919050565b6000602082019050818103600083015261279981612412565b9050919050565b600060208201905081810360008301526127b981612435565b9050919050565b600060208201905081810360008301526127d981612458565b9050919050565b600060208201905081810360008301526127f98161247b565b9050919050565b600060208201905081810360008301526128198161249e565b9050919050565b60006020820190508181036000830152612839816124c1565b9050919050565b60006020820190508181036000830152612859816124e4565b9050919050565b600060208201905081810360008301526128798161252a565b9050919050565b600060208201905081810360008301526128998161254d565b9050919050565b600060208201905081810360008301526128b981612570565b9050919050565b600060208201905081810360008301526128d981612593565b9050919050565b60006020820190506128f5600083018461262d565b92915050565b6000604082019050612910600083018561262d565b61291d60208301846122c9565b9392505050565b6000604082019050612939600083018561262d565b612946602083018461262d565b9392505050565b600060a082019050612962600083018861262d565b61296f602083018761262d565b61297c604083018661262d565b61298960608301856122c9565b6129966080830184612354565b9695505050505050565b6000819050602082019050919050565b600081519050919050565b6000602082019050919050565b600082825260208201905092915050565b600081905092915050565b600082825260208201905092915050565b6000612a0082612ad0565b9150612a0b83612ad0565b9250827fffffffffffffffffffffffffffffffffffffffffffffffffffffffffffffffff03821115612a4057612a3f612b35565b5b828201905092915050565b6000612a5682612ad0565b9150612a6183612ad0565b925082821015612a7457612a73612b35565b5b828203905092915050565b6000612a8a82612ab0565b9050919050565b60008115159050919050565b6000819050612aab82612e72565b919050565b600073ffffffffffffffffffffffffffffffffffffffff82169050919050565b6000819050919050565b6000612ae582612a9d565b9050919050565b6000612af782612ad0565b91507fffffffffffffffffffffffffffffffffffffffffffffffffffffffffffffffff821415612b2a57612b29612b35565b5b600182019050919050565b7f4e487b7100000000000000000000000000000000000000000000000000000000600052601160045260246000fd5b7f4e487b7100000000000000000000000000000000000000000000000000000000600052602160045260246000fd5b7f6f6e6c79206f776e65722063616e206c69737420746865206e66740000000000600082015250565b7f6974656d20616c7265616479206c697374656400000000000000000000000000600082015250565b7f436f756e7465723a2064656372656d656e74206f766572666c6f770000000000600082015250565b7f6974656d4964206e6f74206176696c61626c6500000000000000000000000000600082015250565b7f6f6e6c792073656c6c65722063616e2072656c69737420746865206974656d00600082015250565b7f73656e6420746865206c697374696e67206665653a20247b6765744c6973746960008201527f6e6750726963657d000000000000000000000000000000000000000000000000602082015250565b7f6f6e6c79206f776e65722063616e2075706461746520746865206c697374696e60008201527f6720707269636500000000000000000000000000000000000000000000000000602082015250565b7f496e73756666696369656e742066756e64730000000000000000000000000000600082015250565b7f6974656d206e6f74206176696c61626c6520666f722073616c65000000000000600082015250565b7f6974656d20646f65736e27742065786973740000000000000000000000000000600082015250565b7f70726963652063616e6e6f742062652030000000000000000000000000000000600082015250565b7f6f6e6c792073656c6c65722063616e2072656d6f766520746865206974656d00600082015250565b50565b7f7472616e73666572206661696c65640000000000000000000000000000000000600082015250565b7f6f6e6c792073656c6c65722063616e2063616e63656c20746865206974656d00600082015250565b7f5265656e7472616e637947756172643a207265656e7472616e742063616c6c00600082015250565b7f73656c6c65722063616e6e6f742062757920746865206974656d000000000000600082015250565b60038110612e8357612e82612b64565b5b50565b612e8f81612a7f565b8114612e9a57600080fd5b50565b612ea681612ad0565b8114612eb157600080fd5b5056fea2646970667358221220c09ec60bdfb8d7aa7638b817e1be7ef9d9c62c748b17223a352fceb42d74e11264736f6c63430008040033",
  "linkReferences": {},
  "deployedLinkReferences": {}
}