{
  "_format": "hh-sol-artifact-1",
  "contractName": "NftMarketPlace",
  "sourceName": "src/backend/contracts/nftMarket.sol",
  "abi": [
    {
      "inputs": [],
      "stateMutability": "nonpayable",
      "type": "constructor"
    },
    {
      "anonymous": false,
      "inputs": [
        {
          "indexed": true,
          "internalType": "uint256",
          "name": "itemId",
          "type": "uint256"
        },
        {
          "indexed": true,
          "internalType": "address",
          "name": "buyer",
          "type": "address"
        },
        {
          "indexed": false,
          "internalType": "uint256",
          "name": "price",
          "type": "uint256"
        },
        {
          "indexed": false,
          "internalType": "address",
          "name": "seller",
          "type": "address"
        }
      ],
      "name": "buyItem_",
      "type": "event"
    },
    {
      "anonymous": false,
      "inputs": [
        {
          "indexed": true,
          "internalType": "uint256",
          "name": "itemId",
          "type": "uint256"
        },
        {
          "indexed": true,
          "internalType": "address",
          "name": "seller",
          "type": "address"
        }
      ],
      "name": "cancel_",
      "type": "event"
    },
    {
      "anonymous": false,
      "inputs": [
        {
          "indexed": true,
          "internalType": "uint256",
          "name": "itemId",
          "type": "uint256"
        },
        {
          "indexed": true,
          "internalType": "uint256",
          "name": "price",
          "type": "uint256"
        },
        {
          "indexed": true,
          "internalType": "address",
          "name": "seller_",
          "type": "address"
        }
      ],
      "name": "listMarketItem_",
      "type": "event"
    },
    {
      "anonymous": false,
      "inputs": [
        {
          "indexed": true,
          "internalType": "uint256",
          "name": "itemId",
          "type": "uint256"
        },
        {
          "indexed": true,
          "internalType": "address",
          "name": "seller",
          "type": "address"
        }
      ],
      "name": "relisted_",
      "type": "event"
    },
    {
      "anonymous": false,
      "inputs": [
        {
          "indexed": true,
          "internalType": "uint256",
          "name": "itemId",
          "type": "uint256"
        },
        {
          "indexed": true,
          "internalType": "address",
          "name": "seller",
          "type": "address"
        }
      ],
      "name": "removed_",
      "type": "event"
    },
    {
      "anonymous": false,
      "inputs": [
        {
          "indexed": false,
          "internalType": "address",
          "name": "newNftContract",
          "type": "address"
        }
      ],
      "name": "setNFTContractAddress_",
      "type": "event"
    },
    {
      "anonymous": false,
      "inputs": [
        {
          "indexed": false,
          "internalType": "uint256",
          "name": "oldPrpice",
          "type": "uint256"
        },
        {
          "indexed": false,
          "internalType": "uint256",
          "name": "newPrice",
          "type": "uint256"
        }
      ],
      "name": "updateListingPrice_",
      "type": "event"
    },
    {
      "inputs": [
        {
          "internalType": "uint256",
          "name": "",
          "type": "uint256"
        }
      ],
      "name": "MarketItems",
      "outputs": [
        {
          "internalType": "uint256",
          "name": "itemId",
          "type": "uint256"
        },
        {
          "internalType": "uint256",
          "name": "tokenId",
          "type": "uint256"
        },
        {
          "internalType": "uint256",
          "name": "price",
          "type": "uint256"
        },
        {
          "internalType": "address",
          "name": "seller",
          "type": "address"
        },
        {
          "internalType": "enum NftMarketPlace.itemStatus_",
          "name": "itemStatus",
          "type": "uint8"
        }
      ],
      "stateMutability": "view",
      "type": "function"
    },
    {
      "inputs": [
        {
          "internalType": "uint256",
          "name": "itemId",
          "type": "uint256"
        }
      ],
      "name": "buyMarketItem",
      "outputs": [],
      "stateMutability": "payable",
      "type": "function"
    },
    {
      "inputs": [
        {
          "internalType": "uint256",
          "name": "itemId",
          "type": "uint256"
        }
      ],
      "name": "cancelListing",
      "outputs": [],
      "stateMutability": "nonpayable",
      "type": "function"
    },
    {
      "inputs": [],
      "name": "getListingItems",
      "outputs": [
        {
          "components": [
            {
              "internalType": "uint256",
              "name": "itemId",
              "type": "uint256"
            },
            {
              "internalType": "uint256",
              "name": "tokenId",
              "type": "uint256"
            },
            {
              "internalType": "uint256",
              "name": "price",
              "type": "uint256"
            },
            {
              "internalType": "address",
              "name": "seller",
              "type": "address"
            },
            {
              "internalType": "enum NftMarketPlace.itemStatus_",
              "name": "itemStatus",
              "type": "uint8"
            }
          ],
          "internalType": "struct NftMarketPlace.MarketItem[]",
          "name": "",
          "type": "tuple[]"
        }
      ],
      "stateMutability": "view",
      "type": "function"
    },
    {
      "inputs": [],
      "name": "getListingPrice",
      "outputs": [
        {
          "internalType": "uint256",
          "name": "",
          "type": "uint256"
        }
      ],
      "stateMutability": "view",
      "type": "function"
    },
    {
      "inputs": [
        {
          "internalType": "address",
          "name": "owner_",
          "type": "address"
        }
      ],
      "name": "getMyItems",
      "outputs": [
        {
          "components": [
            {
              "internalType": "uint256",
              "name": "itemId",
              "type": "uint256"
            },
            {
              "internalType": "uint256",
              "name": "tokenId",
              "type": "uint256"
            },
            {
              "internalType": "uint256",
              "name": "price",
              "type": "uint256"
            },
            {
              "internalType": "address",
              "name": "seller",
              "type": "address"
            },
            {
              "internalType": "enum NftMarketPlace.itemStatus_",
              "name": "itemStatus",
              "type": "uint8"
            }
          ],
          "internalType": "struct NftMarketPlace.MarketItem[]",
          "name": "",
          "type": "tuple[]"
        }
      ],
      "stateMutability": "view",
      "type": "function"
    },
    {
      "inputs": [
        {
          "internalType": "uint256",
          "name": "",
          "type": "uint256"
        }
      ],
      "name": "idToMarketItem",
      "outputs": [
        {
          "internalType": "uint256",
          "name": "itemId",
          "type": "uint256"
        },
        {
          "internalType": "uint256",
          "name": "tokenId",
          "type": "uint256"
        },
        {
          "internalType": "uint256",
          "name": "price",
          "type": "uint256"
        },
        {
          "internalType": "address",
          "name": "seller",
          "type": "address"
        },
        {
          "internalType": "enum NftMarketPlace.itemStatus_",
          "name": "itemStatus",
          "type": "uint8"
        }
      ],
      "stateMutability": "view",
      "type": "function"
    },
    {
      "inputs": [
        {
          "internalType": "uint256",
          "name": "price",
          "type": "uint256"
        },
        {
          "internalType": "uint256",
          "name": "tokenId",
          "type": "uint256"
        }
      ],
      "name": "listMarketItem",
      "outputs": [
        {
          "internalType": "bool",
          "name": "",
          "type": "bool"
        }
      ],
      "stateMutability": "payable",
      "type": "function"
    },
    {
      "inputs": [],
      "name": "listingPrice",
      "outputs": [
        {
          "internalType": "uint256",
          "name": "",
          "type": "uint256"
        }
      ],
      "stateMutability": "view",
      "type": "function"
    },
    {
      "inputs": [
        {
          "internalType": "uint256",
          "name": "itemId",
          "type": "uint256"
        }
      ],
      "name": "reListNfts",
      "outputs": [],
      "stateMutability": "nonpayable",
      "type": "function"
    },
    {
      "inputs": [
        {
          "internalType": "uint256",
          "name": "itemId",
          "type": "uint256"
        }
      ],
      "name": "removeFromMarketPlace",
      "outputs": [],
      "stateMutability": "nonpayable",
      "type": "function"
    },
    {
      "inputs": [
        {
          "internalType": "address",
          "name": "nftContract_",
          "type": "address"
        }
      ],
      "name": "setNFTContractAddress",
      "outputs": [],
      "stateMutability": "nonpayable",
      "type": "function"
    },
    {
      "inputs": [
        {
          "internalType": "uint256",
          "name": "price",
          "type": "uint256"
        }
      ],
      "name": "updateListingPrice",
      "outputs": [],
      "stateMutability": "nonpayable",
      "type": "function"
    }
  ],
  "bytecode": "0x6080604052600060035534801561001557600080fd5b50600160008190555033600560006101000a81548173ffffffffffffffffffffffffffffffffffffffff021916908373ffffffffffffffffffffffffffffffffffffffff160217905550612dec8061006e6000396000f3fe6080604052600436106100c25760003560e01c8063351901c31161007f578063ae677aa311610059578063ae677aa31461024e578063c78f19f914610277578063e61a70c0146102a2578063fc4dbb5f146102e3576100c2565b8063351901c3146101c657806336c47a77146101e2578063577256a41461020d576100c2565b80630861f09b146100c757806312e85585146100f057806315ed27051461011b57806323949cd1146101445780632796390c1461016d578063305a67a81461019d575b600080fd5b3480156100d357600080fd5b506100ee60048036038101906100e99190612217565b610320565b005b3480156100fc57600080fd5b50610105610625565b6040516101129190612834565b60405180910390f35b34801561012757600080fd5b50610142600480360381019061013d9190612217565b61062f565b005b34801561015057600080fd5b5061016b600480360381019061016691906121c5565b6109da565b005b61018760048036038101906101829190612240565b610ae5565b6040516101949190612659565b60405180910390f35b3480156101a957600080fd5b506101c460048036038101906101bf9190612217565b61100b565b005b6101e060048036038101906101db9190612217565b61130f565b005b3480156101ee57600080fd5b506101f7611822565b6040516102049190612637565b60405180910390f35b34801561021957600080fd5b50610234600480360381019061022f9190612217565b611af8565b6040516102459594939291906128a1565b60405180910390f35b34801561025a57600080fd5b5061027560048036038101906102709190612217565b611b6b565b005b34801561028357600080fd5b5061028c611c40565b6040516102999190612834565b60405180910390f35b3480156102ae57600080fd5b506102c960048036038101906102c49190612217565b611c46565b6040516102da9594939291906128a1565b60405180910390f35b3480156102ef57600080fd5b5061030a600480360381019061030591906121c5565b611ca9565b6040516103179190612637565b60405180910390f35b60026000541415610366576040517f08c379a000000000000000000000000000000000000000000000000000000000815260040161035d906127f4565b60405180910390fd5b600260008190555061037781611fd9565b6103b6576040517f08c379a00000000000000000000000000000000000000000000000000000000081526004016103ad906126b4565b60405180910390fd5b600160028111156103f0577f4e487b7100000000000000000000000000000000000000000000000000000000600052602160045260246000fd5b6006600083815260200190815260200160002060030160149054906101000a900460ff16600281111561044c577f4e487b7100000000000000000000000000000000000000000000000000000000600052602160045260246000fd5b141561048d576040517f08c379a000000000000000000000000000000000000000000000000000000000815260040161048490612734565b60405180910390fd5b6006600082815260200190815260200160002060030160009054906101000a900473ffffffffffffffffffffffffffffffffffffffff1673ffffffffffffffffffffffffffffffffffffffff163373ffffffffffffffffffffffffffffffffffffffff1614610531576040517f08c379a0000000000000000000000000000000000000000000000000000000008152600401610528906127d4565b60405180910390fd5b60016006600083815260200190815260200160002060030160146101000a81548160ff02191690836002811115610591577f4e487b7100000000000000000000000000000000000000000000000000000000600052602160045260246000fd5b02179055506105a06002612089565b6006600082815260200190815260200160002060030160009054906101000a900473ffffffffffffffffffffffffffffffffffffffff1673ffffffffffffffffffffffffffffffffffffffff16817f32aa5a5e72088cec91865fb80387ab3234411743124e1769338e3b95bc1a9d3760405160405180910390a3600160008190555050565b6000600354905090565b60026000541415610675576040517f08c379a000000000000000000000000000000000000000000000000000000000815260040161066c906127f4565b60405180910390fd5b6002600081905550600160028111156106b7577f4e487b7100000000000000000000000000000000000000000000000000000000600052602160045260246000fd5b6006600083815260200190815260200160002060030160149054906101000a900460ff166002811115610713577f4e487b7100000000000000000000000000000000000000000000000000000000600052602160045260246000fd5b1415610723576107228161100b565b5b61072c81611fd9565b61076b576040517f08c379a0000000000000000000000000000000000000000000000000000000008152600401610762906126b4565b60405180910390fd5b6006600082815260200190815260200160002060030160009054906101000a900473ffffffffffffffffffffffffffffffffffffffff1673ffffffffffffffffffffffffffffffffffffffff163373ffffffffffffffffffffffffffffffffffffffff161461080f576040517f08c379a000000000000000000000000000000000000000000000000000000000815260040161080690612794565b60405180910390fd5b600460009054906101000a900473ffffffffffffffffffffffffffffffffffffffff1673ffffffffffffffffffffffffffffffffffffffff166342842e0e306006600085815260200190815260200160002060030160009054906101000a900473ffffffffffffffffffffffffffffffffffffffff1660066000868152602001908152602001600020600101546040518463ffffffff1660e01b81526004016108ba93929190612600565b600060405180830381600087803b1580156108d457600080fd5b505af11580156108e8573d6000803e3d6000fd5b505050506006600082815260200190815260200160002060030160009054906101000a900473ffffffffffffffffffffffffffffffffffffffff1673ffffffffffffffffffffffffffffffffffffffff16817f701135a44270e5826bece48551493cf13bc27eab653d2ad350d2c80d326e554660405160405180910390a360066000828152602001908152602001600020600080820160009055600182016000905560028201600090556003820160006101000a81549073ffffffffffffffffffffffffffffffffffffffff02191690556003820160146101000a81549060ff02191690555050600160008190555050565b600560009054906101000a900473ffffffffffffffffffffffffffffffffffffffff1673ffffffffffffffffffffffffffffffffffffffff163373ffffffffffffffffffffffffffffffffffffffff1614610a6a576040517f08c379a0000000000000000000000000000000000000000000000000000000008152600401610a61906126f4565b60405180910390fd5b80600460006101000a81548173ffffffffffffffffffffffffffffffffffffffff021916908373ffffffffffffffffffffffffffffffffffffffff1602179055507fea81eba1dfffa0a2b11ab9cd71ce5b81a13091ba4401a9f1b103efc7d4cbb43f81604051610ada91906125e5565b60405180910390a150565b600060026000541415610b2d576040517f08c379a0000000000000000000000000000000000000000000000000000000008152600401610b24906127f4565b60405180910390fd5b60026000819055506003543414610b79576040517f08c379a0000000000000000000000000000000000000000000000000000000008152600401610b70906126d4565b60405180910390fd5b60008311610bbc576040517f08c379a0000000000000000000000000000000000000000000000000000000008152600401610bb390612774565b60405180910390fd5b3373ffffffffffffffffffffffffffffffffffffffff16600460009054906101000a900473ffffffffffffffffffffffffffffffffffffffff1673ffffffffffffffffffffffffffffffffffffffff16636352211e846040518263ffffffff1660e01b8152600401610c2e9190612834565b60206040518083038186803b158015610c4657600080fd5b505afa158015610c5a573d6000803e3d6000fd5b505050506040513d601f19601f82011682018060405250810190610c7e91906121ee565b73ffffffffffffffffffffffffffffffffffffffff1614610cd4576040517f08c379a0000000000000000000000000000000000000000000000000000000008152600401610ccb90612674565b60405180910390fd5b600460009054906101000a900473ffffffffffffffffffffffffffffffffffffffff1673ffffffffffffffffffffffffffffffffffffffff166323b872dd3330856040518463ffffffff1660e01b8152600401610d3393929190612600565b600060405180830381600087803b158015610d4d57600080fd5b505af1158015610d61573d6000803e3d6000fd5b50505050610d6f60016120e5565b6000610d7b60016120fb565b905060006040518060a001604052808381526020018581526020018681526020013373ffffffffffffffffffffffffffffffffffffffff16815260200160016002811115610df2577f4e487b7100000000000000000000000000000000000000000000000000000000600052602160045260246000fd5b8152509050806006600084815260200190815260200160002060008201518160000155602082015181600101556040820151816002015560608201518160030160006101000a81548173ffffffffffffffffffffffffffffffffffffffff021916908373ffffffffffffffffffffffffffffffffffffffff16021790555060808201518160030160146101000a81548160ff02191690836002811115610ec1577f4e487b7100000000000000000000000000000000000000000000000000000000600052602160045260246000fd5b0217905550905050600781908060018154018082558091505060019003906000526020600020906004020160009091909190915060008201518160000155602082015181600101556040820151816002015560608201518160030160006101000a81548173ffffffffffffffffffffffffffffffffffffffff021916908373ffffffffffffffffffffffffffffffffffffffff16021790555060808201518160030160146101000a81548160ff02191690836002811115610fab577f4e487b7100000000000000000000000000000000000000000000000000000000600052602160045260246000fd5b021790555050503373ffffffffffffffffffffffffffffffffffffffff1685837fac3538b3f5158158344c0c274a366a56901046daad1c2c88698e4f2216ccd96a60405160405180910390a4600192505050600160008190555092915050565b60026000541415611051576040517f08c379a0000000000000000000000000000000000000000000000000000000008152600401611048906127f4565b60405180910390fd5b600260008190555061106281611fd9565b6110a1576040517f08c379a0000000000000000000000000000000000000000000000000000000008152600401611098906126b4565b60405180910390fd5b600160028111156110db577f4e487b7100000000000000000000000000000000000000000000000000000000600052602160045260246000fd5b6006600083815260200190815260200160002060030160149054906101000a900460ff166002811115611137577f4e487b7100000000000000000000000000000000000000000000000000000000600052602160045260246000fd5b14611177576040517f08c379a000000000000000000000000000000000000000000000000000000000815260040161116e90612734565b60405180910390fd5b6006600082815260200190815260200160002060030160009054906101000a900473ffffffffffffffffffffffffffffffffffffffff1673ffffffffffffffffffffffffffffffffffffffff163373ffffffffffffffffffffffffffffffffffffffff161461121b576040517f08c379a0000000000000000000000000000000000000000000000000000000008152600401611212906127d4565b60405180910390fd5b60026006600083815260200190815260200160002060030160146101000a81548160ff0219169083600281111561127b577f4e487b7100000000000000000000000000000000000000000000000000000000600052602160045260246000fd5b021790555061128a60026120e5565b6006600082815260200190815260200160002060030160009054906101000a900473ffffffffffffffffffffffffffffffffffffffff1673ffffffffffffffffffffffffffffffffffffffff16817f396abdcb84344ca4b5aa536a643efe3993b58ef9a2b59bb5e12170608483ca4960405160405180910390a3600160008190555050565b60026000541415611355576040517f08c379a000000000000000000000000000000000000000000000000000000000815260040161134c906127f4565b60405180910390fd5b600260008190555061136681611fd9565b6113a5576040517f08c379a000000000000000000000000000000000000000000000000000000000815260040161139c906126b4565b60405180910390fd5b600160028111156113df577f4e487b7100000000000000000000000000000000000000000000000000000000600052602160045260246000fd5b6006600083815260200190815260200160002060030160149054906101000a900460ff16600281111561143b577f4e487b7100000000000000000000000000000000000000000000000000000000600052602160045260246000fd5b1461147b576040517f08c379a000000000000000000000000000000000000000000000000000000000815260040161147290612734565b60405180910390fd5b6006600082815260200190815260200160002060030160009054906101000a900473ffffffffffffffffffffffffffffffffffffffff1673ffffffffffffffffffffffffffffffffffffffff163373ffffffffffffffffffffffffffffffffffffffff161415611520576040517f08c379a000000000000000000000000000000000000000000000000000000000815260040161151790612814565b60405180910390fd5b60066000828152602001908152602001600020600201543414611578576040517f08c379a000000000000000000000000000000000000000000000000000000000815260040161156f90612714565b60405180910390fd5b60006006600083815260200190815260200160002060030160146101000a81548160ff021916908360028111156115d8577f4e487b7100000000000000000000000000000000000000000000000000000000600052602160045260246000fd5b021790555060006006600083815260200190815260200160002060030160009054906101000a900473ffffffffffffffffffffffffffffffffffffffff1673ffffffffffffffffffffffffffffffffffffffff1634604051611639906125d0565b60006040518083038185875af1925050503d8060008114611676576040519150601f19603f3d011682016040523d82523d6000602084013e61167b565b606091505b50509050806116bf576040517f08c379a00000000000000000000000000000000000000000000000000000000081526004016116b6906127b4565b60405180910390fd5b336006600084815260200190815260200160002060030160006101000a81548173ffffffffffffffffffffffffffffffffffffffff021916908373ffffffffffffffffffffffffffffffffffffffff16021790555060016006600084815260200190815260200160002060030160146101000a81548160ff02191690836002811115611774577f4e487b7100000000000000000000000000000000000000000000000000000000600052602160045260246000fd5b02179055503373ffffffffffffffffffffffffffffffffffffffff16827f2cf358a148899c216a27d355e3cee3cf4e55c28acfc4719867662959c1ac195560066000868152602001908152602001600020600201546006600087815260200190815260200160002060030160009054906101000a900473ffffffffffffffffffffffffffffffffffffffff1660405161180e92919061284f565b60405180910390a350600160008190555050565b6060600061183060026120fb565b61183a60016120fb565b611844919061299f565b905060008167ffffffffffffffff811115611888577f4e487b7100000000000000000000000000000000000000000000000000000000600052604160045260246000fd5b6040519080825280602002602001820160405280156118c157816020015b6118ae612109565b8152602001906001900390816118a65790505b509050600080600190505b838111611aee576001600281111561190d577f4e487b7100000000000000000000000000000000000000000000000000000000600052602160045260246000fd5b6006600083815260200190815260200160002060030160149054906101000a900460ff166002811115611969577f4e487b7100000000000000000000000000000000000000000000000000000000600052602160045260246000fd5b1415611adb57600660008281526020019081526020016000206040518060a00160405290816000820154815260200160018201548152602001600282015481526020016003820160009054906101000a900473ffffffffffffffffffffffffffffffffffffffff1673ffffffffffffffffffffffffffffffffffffffff1673ffffffffffffffffffffffffffffffffffffffff1681526020016003820160149054906101000a900460ff166002811115611a4c577f4e487b7100000000000000000000000000000000000000000000000000000000600052602160045260246000fd5b6002811115611a84577f4e487b7100000000000000000000000000000000000000000000000000000000600052602160045260246000fd5b81525050838381518110611ac1577f4e487b7100000000000000000000000000000000000000000000000000000000600052603260045260246000fd5b60200260200101819052508180611ad790612a40565b9250505b8080611ae690612a40565b9150506118cc565b5081935050505090565b60078181548110611b0857600080fd5b90600052602060002090600402016000915090508060000154908060010154908060020154908060030160009054906101000a900473ffffffffffffffffffffffffffffffffffffffff16908060030160149054906101000a900460ff16905085565b600560009054906101000a900473ffffffffffffffffffffffffffffffffffffffff1673ffffffffffffffffffffffffffffffffffffffff163373ffffffffffffffffffffffffffffffffffffffff1614611bfb576040517f08c379a0000000000000000000000000000000000000000000000000000000008152600401611bf2906126f4565b60405180910390fd5b7f5d781d913cac5ca30161ef613470c35ba9e441e21577dc02d334cfc4e5b8372a60035482604051611c2e929190612878565b60405180910390a18060038190555050565b60035481565b60066020528060005260406000206000915090508060000154908060010154908060020154908060030160009054906101000a900473ffffffffffffffffffffffffffffffffffffffff16908060030160149054906101000a900460ff16905085565b60606000611cb760016120fb565b9050600080600190505b828111611d55578473ffffffffffffffffffffffffffffffffffffffff166006600083815260200190815260200160002060030160009054906101000a900473ffffffffffffffffffffffffffffffffffffffff1673ffffffffffffffffffffffffffffffffffffffff161415611d4257600182611d3f9190612949565b91505b8080611d4d90612a40565b915050611cc1565b5060008167ffffffffffffffff811115611d98577f4e487b7100000000000000000000000000000000000000000000000000000000600052604160045260246000fd5b604051908082528060200260200182016040528015611dd157816020015b611dbe612109565b815260200190600190039081611db65790505b509050600080600190505b848111611fcc578673ffffffffffffffffffffffffffffffffffffffff166006600083815260200190815260200160002060030160009054906101000a900473ffffffffffffffffffffffffffffffffffffffff1673ffffffffffffffffffffffffffffffffffffffff161415611fb957600660008281526020019081526020016000206040518060a00160405290816000820154815260200160018201548152602001600282015481526020016003820160009054906101000a900473ffffffffffffffffffffffffffffffffffffffff1673ffffffffffffffffffffffffffffffffffffffff1673ffffffffffffffffffffffffffffffffffffffff1681526020016003820160149054906101000a900460ff166002811115611f2a577f4e487b7100000000000000000000000000000000000000000000000000000000600052602160045260246000fd5b6002811115611f62577f4e487b7100000000000000000000000000000000000000000000000000000000600052602160045260246000fd5b81525050838381518110611f9f577f4e487b7100000000000000000000000000000000000000000000000000000000600052603260045260246000fd5b60200260200101819052508180611fb590612a40565b9250505b8080611fc490612a40565b915050611ddc565b5081945050505050919050565b60008073ffffffffffffffffffffffffffffffffffffffff166006600084815260200190815260200160002060030160009054906101000a900473ffffffffffffffffffffffffffffffffffffffff1673ffffffffffffffffffffffffffffffffffffffff161415612080576040517f08c379a000000000000000000000000000000000000000000000000000000000815260040161207790612754565b60405180910390fd5b60019050919050565b600081600001549050600081116120d5576040517f08c379a00000000000000000000000000000000000000000000000000000000081526004016120cc90612694565b60405180910390fd5b6001810382600001819055505050565b6001816000016000828254019250508190555050565b600081600001549050919050565b6040518060a00160405280600081526020016000815260200160008152602001600073ffffffffffffffffffffffffffffffffffffffff16815260200160006002811115612180577f4e487b7100000000000000000000000000000000000000000000000000000000600052602160045260246000fd5b81525090565b60008135905061219581612d88565b92915050565b6000815190506121aa81612d88565b92915050565b6000813590506121bf81612d9f565b92915050565b6000602082840312156121d757600080fd5b60006121e584828501612186565b91505092915050565b60006020828403121561220057600080fd5b600061220e8482850161219b565b91505092915050565b60006020828403121561222957600080fd5b6000612237848285016121b0565b91505092915050565b6000806040838503121561225357600080fd5b6000612261858286016121b0565b9250506020612272858286016121b0565b9150509250929050565b6000612288838361254a565b60a08301905092915050565b61229d816129d3565b82525050565b6122ac816129d3565b82525050565b60006122bd82612904565b6122c7818561291c565b93506122d2836128f4565b8060005b838110156123035781516122ea888261227c565b97506122f58361290f565b9250506001810190506122d6565b5085935050505092915050565b612319816129e5565b82525050565b61232881612a2e565b82525050565b61233781612a2e565b82525050565b600061234a601b83612938565b915061235582612ae7565b602082019050919050565b600061236d601b83612938565b915061237882612b10565b602082019050919050565b6000612390601383612938565b915061239b82612b39565b602082019050919050565b60006123b3602883612938565b91506123be82612b62565b604082019050919050565b60006123d6602783612938565b91506123e182612bb1565b604082019050919050565b60006123f9601283612938565b915061240482612c00565b602082019050919050565b600061241c601a83612938565b915061242782612c29565b602082019050919050565b600061243f601283612938565b915061244a82612c52565b602082019050919050565b6000612462601183612938565b915061246d82612c7b565b602082019050919050565b6000612485601f83612938565b915061249082612ca4565b602082019050919050565b60006124a860008361292d565b91506124b382612ccd565b600082019050919050565b60006124cb600f83612938565b91506124d682612cd0565b602082019050919050565b60006124ee601f83612938565b91506124f982612cf9565b602082019050919050565b6000612511601f83612938565b915061251c82612d22565b602082019050919050565b6000612534601a83612938565b915061253f82612d4b565b602082019050919050565b60a08201600082015161256060008501826125b2565b50602082015161257360208501826125b2565b50604082015161258660408501826125b2565b5060608201516125996060850182612294565b5060808201516125ac608085018261231f565b50505050565b6125bb81612a24565b82525050565b6125ca81612a24565b82525050565b60006125db8261249b565b9150819050919050565b60006020820190506125fa60008301846122a3565b92915050565b600060608201905061261560008301866122a3565b61262260208301856122a3565b61262f60408301846125c1565b949350505050565b6000602082019050818103600083015261265181846122b2565b905092915050565b600060208201905061266e6000830184612310565b92915050565b6000602082019050818103600083015261268d8161233d565b9050919050565b600060208201905081810360008301526126ad81612360565b9050919050565b600060208201905081810360008301526126cd81612383565b9050919050565b600060208201905081810360008301526126ed816123a6565b9050919050565b6000602082019050818103600083015261270d816123c9565b9050919050565b6000602082019050818103600083015261272d816123ec565b9050919050565b6000602082019050818103600083015261274d8161240f565b9050919050565b6000602082019050818103600083015261276d81612432565b9050919050565b6000602082019050818103600083015261278d81612455565b9050919050565b600060208201905081810360008301526127ad81612478565b9050919050565b600060208201905081810360008301526127cd816124be565b9050919050565b600060208201905081810360008301526127ed816124e1565b9050919050565b6000602082019050818103600083015261280d81612504565b9050919050565b6000602082019050818103600083015261282d81612527565b9050919050565b600060208201905061284960008301846125c1565b92915050565b600060408201905061286460008301856125c1565b61287160208301846122a3565b9392505050565b600060408201905061288d60008301856125c1565b61289a60208301846125c1565b9392505050565b600060a0820190506128b660008301886125c1565b6128c360208301876125c1565b6128d060408301866125c1565b6128dd60608301856122a3565b6128ea608083018461232e565b9695505050505050565b6000819050602082019050919050565b600081519050919050565b6000602082019050919050565b600082825260208201905092915050565b600081905092915050565b600082825260208201905092915050565b600061295482612a24565b915061295f83612a24565b9250827fffffffffffffffffffffffffffffffffffffffffffffffffffffffffffffffff0382111561299457612993612a89565b5b828201905092915050565b60006129aa82612a24565b91506129b583612a24565b9250828210156129c8576129c7612a89565b5b828203905092915050565b60006129de82612a04565b9050919050565b60008115159050919050565b60008190506129ff82612d74565b919050565b600073ffffffffffffffffffffffffffffffffffffffff82169050919050565b6000819050919050565b6000612a39826129f1565b9050919050565b6000612a4b82612a24565b91507fffffffffffffffffffffffffffffffffffffffffffffffffffffffffffffffff821415612a7e57612a7d612a89565b5b600182019050919050565b7f4e487b7100000000000000000000000000000000000000000000000000000000600052601160045260246000fd5b7f4e487b7100000000000000000000000000000000000000000000000000000000600052602160045260246000fd5b7f6f6e6c79206f776e65722063616e206c69737420746865206e66740000000000600082015250565b7f436f756e7465723a2064656372656d656e74206f766572666c6f770000000000600082015250565b7f6974656d4964206e6f74206176696c61626c6500000000000000000000000000600082015250565b7f73656e6420746865206c697374696e67206665653a20247b6765744c6973746960008201527f6e6750726963657d000000000000000000000000000000000000000000000000602082015250565b7f6f6e6c79206f776e65722063616e2075706461746520746865206c697374696e60008201527f6720707269636500000000000000000000000000000000000000000000000000602082015250565b7f496e73756666696369656e742066756e64730000000000000000000000000000600082015250565b7f6974656d206e6f74206176696c61626c6520666f722073616c65000000000000600082015250565b7f6974656d20646f65736e27742065786973740000000000000000000000000000600082015250565b7f70726963652063616e6e6f742062652030000000000000000000000000000000600082015250565b7f6f6e6c792073656c6c65722063616e2072656d6f766520746865206974656d00600082015250565b50565b7f7472616e73666572206661696c65640000000000000000000000000000000000600082015250565b7f6f6e6c792073656c6c65722063616e2063616e63656c20746865206974656d00600082015250565b7f5265656e7472616e637947756172643a207265656e7472616e742063616c6c00600082015250565b7f73656c6c65722063616e6e6f742062757920746865206974656d000000000000600082015250565b60038110612d8557612d84612ab8565b5b50565b612d91816129d3565b8114612d9c57600080fd5b50565b612da881612a24565b8114612db357600080fd5b5056fea26469706673582212204faa2edb0600c2201cc65d13e67785e61299fdbee2f1dee259918dd998d348c564736f6c63430008040033",
  "linkReferences": {},
  "deployedLinkReferences": {}
}